:020000040000fa
:080000000002040000000000f2
:020000040000fa
:04000800e40200000e
:020000040000fa
:04000c00e40200000a
:020000040000fa
:04001000e402000006
:020000040000fa
:04001400e402000002
:020000040000fa
:04001800e4020000fe
:020000040000fa
:04001c00e4020000fa
:020000040000fa
:04002000e4020000f6
:020000040000fa
:04002400e4020000f2
:020000040000fa
:04002800e4020000ee
:020000040000fa
:04002c00e4020000ea
:020000040000fa
:04003000e4020000e6
:020000040000fa
:04003400e4020000e2
:020000040000fa
:040038007639000015
:020000040000fa
:04003c00e4020000da
:020000040000fa
:04004000e4020000d6
:020000040000fa
:04004400e4020000d2
:020000040000fa
:04004800e4020000ce
:020000040000fa
:04004c00e4020000ca
:020000040000fa
:04005000e4020000c6
:020000040000fa
:04005400e4020000c2
:020000040000fa
:04005800e4020000be
:020000040000fa
:04005c00e4020000ba
:020000040000fa
:040060007e390000e5
:020000040000fa
:04006400e4020000b2
:020000040000fa
:04006800e4020000ae
:020000040000fa
:04006c00e4020000aa
:020000040000fa
:04007000e4020000a6
:020000040000fa
:040074000c3100004b
:020000040000fa
:04007800e40200009e
:020000040000fa
:04007c00e40200009a
:020000040000fa
:04008000e402000096
:020000040000fa
:04008400e402000092
:020000040000fa
:04008800ce3900006d
:020000040000fa
:04008c00e40200008a
:020000040000fa
:04009000e402000086
:020000040000fa
:04009400e402000082
:020000040000fa
:04009800e40200007e
:020000040000fa
:04009c00e40200007a
:020000040000fa
:0400a000e402000076
:020000040000fa
:0400a400e402000072
:020000040000fa
:0400a800e40200006e
:020000040000fa
:0400ac00e40200006a
:020000040000fa
:0400b000e402000066
:020000040000fa
:0400b400e402000062
:020000040000fa
:0400b800d639000035
:020000040000fa
:0400bc00e40200005a
:020000040000fa
:0400c000e402000056
:020000040000fa
:0400c400e402000052
:020000040000fa
:0400c800e40200004e
:020000040000fa
:0400cc00e40200004a
:020000040000fa
:0400d000e402000046
:020000040000fa
:0400d400e402000042
:020000040000fa
:0400d800e40200003e
:020000040000fa
:0400dc00e40200003a
:020000040000fa
:0400e000fa390000e9
:020000040000fa
:0400e400e402000032
:020000040000fa
:0400e800ee270000ff
:020000040000fa
:0400ec00e40200002a
:020000040000fa
:0400f000e402000026
:020000040000fa
:0400f400e402000022
:020000040000fa
:0400f800e40200001e
:020000040000fa
:0400fc00e40200001a
:020000040000fa
:04010000e402000015
:020000040000fa
:04010400e402000011
:020000040000fa
:04010800e40200000d
:020000040000fa
:04010c00e402000009
:020000040000fa
:04011000e402000005
:020000040000fa
:04011400e402000001
:020000040000fa
:04011800e4020000fd
:020000040000fa
:04011c00023a0000a3
:020000040000fa
:04012000e4020000f5
:020000040000fa
:04012400e4020000f1
:020000040000fa
:04012800e4020000ed
:020000040000fa
:04012c00e4020000e9
:020000040000fa
:04013000e4020000e5
:020000040000fa
:04013400e4020000e1
:020000040000fa
:04013800263a000063
:020000040000fa
:04013c00e4020000d9
:020000040000fa
:04014000e4020000d5
:020000040000fa
:04014400e4020000d1
:020000040000fa
:04014800e4020000cd
:020000040000fa
:04014c00e4020000c9
:020000040000fa
:04015000e4020000c5
:020000040000fa
:04015400e4020000c1
:020000040000fa
:04015800e4020000bd
:020000040000fa
:04015c00e4020000b9
:020000040000fa
:04016000e4020000b5
:020000040000fa
:04016400e4020000b1
:020000040000fa
:04016800e4020000ad
:020000040000fa
:04016c00e4020000a9
:020000040000fa
:04017000e4020000a5
:020000040000fa
:04017400e4020000a1
:020000040000fa
:04017800e40200009d
:020000040000fa
:04017c00e402000099
:020000040000fa
:04018000e402000095
:020000040000fa
:04018400e402000091
:020000040000fa
:04018800e40200008d
:020000040000fa
:04018c00e402000089
:020000040000fa
:04019000e402000085
:020000040000fa
:04019400e402000081
:020000040000fa
:04019800e40200007d
:020000040000fa
:04019c00e402000079
:020000040000fa
:0401a000e402000075
:020000040000fa
:0401a400e402000071
:020000040000fa
:0401a800e40200006d
:020000040000fa
:0401ac00e402000069
:020000040000fa
:0401b000e402000065
:020000040000fa
:0401b400e402000061
:020000040000fa
:0401b800e40200005d
:020000040000fa
:0401bc00e402000059
:020000040000fa
:0401c000e402000055
:020000040000fa
:0401c400e402000051
:020000040000fa
:0401c800e40200004d
:020000040000fa
:0401cc00e402000049
:020000040000fa
:0401d000e402000045
:020000040000fa
:0401d400e402000041
:020000040000fa
:0401d800e40200003d
:020000040000fa
:0401dc00e402000039
:020000040000fa
:0401e000e402000035
:020000040000fa
:0401e400e402000031
:020000040000fa
:0401e800e40200002d
:020000040000fa
:0401ec00e402000029
:020000040000fa
:0401f000e402000025
:020000040000fa
:0401f400e402000021
:020000040000fa
:0401f800e40200001d
:020000040000fa
:0401fc00e402000019
:020000040000fa
:04020000e402000014
:020000040000fa
:04020400e402000010
:020000040000fa
:04020800e40200000c
:020000040000fa
:04020c00e402000008
:020000040000fa
:04021000e402000004
:020000040000fa
:04021400e402000000
:020000040000fa
:04021800e4020000fc
:020000040000fa
:04021c00e4020000f8
:020000040000fa
:04022000e4020000f4
:020000040000fa
:04022400e4020000f0
:020000040000fa
:04022800e4020000ec
:020000040000fa
:04022c00e4020000e8
:020000040000fa
:04023000e4020000e4
:020000040000fa
:04023400e4020000e0
:020000040000fa
:04023800e4020000dc
:020000040000fa
:04023c00e4020000d8
:020000040000fa
:04024000e4020000d4
:020000040000fa
:04024400e4020000d0
:020000040000fa
:04024800e4020000cc
:020000040000fa
:04024c00e4020000c8
:020000040000fa
:04025000e4020000c4
:020000040000fa
:04025400e4020000c0
:020000040000fa
:04025800e4020000bc
:020000040000fa
:04025c00e4020000b8
:020000040000fa
:04026000e4020000b4
:020000040000fa
:04026400e4020000b0
:020000040000fa
:100400002f6121000ef327000e018800000000007c
:10041000000020000000e000020032000001200087
:10042000200288000c00070080a3230001002000a8
:100430000f000700000020000000e0000200320072
:1004400000000200000000009a2c020000000000e2
:100450000040da000000fe00200a20000000e0005a
:1004600002003200002020009001880000000600f9
:10047000a1028800800078000000eb001a0037001d
:10048000e280400054a0b4009101ba00e280400034
:1004900054a0b4009102ba00e280400054a0b4001d
:1004a0000002eb00472bde00f507b200a601880032
:1004b000602ce10008003a000049eb000201e8006e
:1004c000020039003420ec0002f0a0008301e900b2
:1004d000f9ff3e00040037006128e100010032000e
:1004e0000082eb000b00070011c3ba001101ba0033
:1004f0000604e00003003a000200e000e0ff3a00da
:1005000000000600f607b200a6028800820078000c
:10051000f5ff370004d0a300e20f49001c003900aa
:10052000810278003549ba000201e8000200390072
:100530003420ec0002f0a0008301e9000f0032003b
:100540002549ba000201e800020039003420ec001d
:1005500002f0a0008301e900080032000400e0007e
:100560000600320015c9ba000201e8000200390095
:100570003420ec0002f0a0008301e9008180e80053
:1005800054a0b4000300e000e2ff3a0000000600bf
:100590009102ba00055978008301e900f7ff3200a3
:1005a000c82ade00055978008301e900f3ff320014
:1005b0000400e000f1ff320011d9ba00eeff37006d
:1005c000c4300400000000000040da000000fe001b
:1005d0000a00fa00e20f500020003e0080b08000c8
:1005e000e10f500006003200802320004523200048
:1005f00023232000042320000000e00004003a0030
:1006000080222000452220002322200004222000f6
:10061000060028001403630003003a00060878006f
:1006200000002800140a700013a8a30001003a007b
:1006300013a0a00002007800050037001388a30073
:10064000feff32003102fb00840a78000000e9005e
:100650000000e000f9ff3a000800370033002000f6
:10066000b3bf9f00c0bf9f00d1bf9f00e2bf9f00ec
:100670006a805700850a07006fb99700020078006a
:100680000080fa000000060006a2a9000682a80069
:10069000000006000602ab00feff3a000642ab0077
:1006a000fcff3a000662ab00faff3a000622ab00fc
:1006b000f8ff3a000682ab00f6ff3a0009c2ab0031
:1006c000f4ff3a00000006000662a8000662ab00d4
:1006d000feff3a0008c2a9000010800000000600da
:1006e0008040780000c0eb008180fb001110880082
:1006f00008e2ab0007003a0009c2ab00feff3a0077
:10070000e4ff07000040eb000802e20001003d00aa
:10071000e0cfb3000000060006a2a8000682a800f1
:10072000000006000622a800000006000602a8003d
:10073000000006000642a800000006002148a900ab
:1007400041e2a9000148a900000006002428a900f0
:1007500061e2a9000428a900000006002b68a90096
:10076000a1e2a9000b68a900000006001012880091
:100770002112880002128800000006001013880071
:10078000211388000213880000000600101588005d
:1007900021158800021588000000060081118000e4
:1007a000e6806000e68f50000c003a00030037003e
:1007b0003322ab00feff3a00a1118800b0007800a0
:1007c0000100e000faff3a00000006003322ab000f
:1007d000feff3a008100fb00a1118800b0407800c4
:1007e0000104e000f9ff3a000000060003f0a20057
:1007f000889fbe008a9fbe008c1f7800fc00070007
:10080000030133006450e1004f0032006420e10036
:100810005200320003826c0007003b000905d00043
:100820000306d000820f54000c065d000200390060
:1008300002003200890178000306780085825500a5
:1008400004003d000003fd008103fd008502ea0075
:100850008b854200840f720002003b006000100094
:10086000e08018006011b8000005eb007a28e10074
:100870000a00390006007800c75ddd00f707b20006
:10088000878075002d003700828171000a01780091
:10089000610560008180d1000080d3008502e900fd
:1008a000f9ff3b00060440008784480002003b003b
:1008b00060041400e0841c000988a30007003200d3
:1008c0008a81710082817100610164008904d10014
:1008d0000884d3008b05e800170037000978a300cf
:1008e00013003a000b00e000130034008b05e90010
:1008f0000804440089844c000a4474000978a30069
:100900000d003a000b00e000070034008b05e90001
:100910000804440089844c0001003a000b002000c8
:100920000978a300f7ff32000001eb000200370056
:10093000828171000a017800720007000cf0a700a4
:1009400001f0a000bb0037006420e10002003a0083
:10095000838f6c00bb0033000801be000200be00a4
:10096000b4003700889fbe008a9fbe008c1f7800ad
:100970009f000700a600330003866c006450e1006e
:100980002e0032006420e100330032006150e100ab
:100990002f0032006120e1003100320085855500d2
:1009a000eb07b00009002000080420000500370014
:1009b0000804440089844c000a0031000603430007
:1009c00087834b000001530081815b00f8ff3300f7
:1009d0000203be000800a0000804440089844c0003
:1009e000f6ff3900c639dd008301730001003200d3
:1009f000130020008904d1000884d3000998a300c3
:100a0000050032000800a7000300a0008904d100ff
:100a10000884d3008b05e8008904d1000884d30042
:100a20000001eb000281d2003600070001f0a100b6
:100a30000cf0a70001f0a0007e0037006420e10068
:100a4000800032000801be000200be00f7ff370040
:100a50006120e1007b0032006000b800f3ff370046
:100a60000000200001f82700f0ff37000001be0061
:100a70004a0007000470a70003f0a1006509b10057
:100a8000160032000d0035006828e1000600350030
:100a9000f0ff2f00f1ff27000300e00013003b00f0
:100aa000010028000000050000004000818048008f
:100ab0008502e900fcff3a0008003700f88f420089
:100ac00002003c008000eb00000005008100d10026
:100ad0000080d3008502e800fcff3a000300e0003c
:100ae00002003b0060001000e080180000000600db
:100af0004f89de00820178009d0037006011b80048
:100b0000ab00370081002000618055000b003d00e4
:100b10000b00200061fe2f000100e1001d003400e9
:100b200082817100610164008904d1000884d300ce
:100b30000000e800faff3a00710020006100640044
:100b400003007000020060000900320061044400ec
:100b5000e0844c000988a500050032008b05e80000
:100b60006808e10002003a008904d1000884d3003b
:100b7000f20f20000258e10005003d00c75ddd00d6
:100b8000f907b200898075000800780000000600af
:100b90000bf827008b00780000000500c70ade0074
:100ba000f107b200f50fb20008003200e1cf4200b9
:100bb000020032000170a00024000500810f7000c7
:100bc000010032000408050044000500810f700098
:100bd00002003a00140005008502e9000000400010
:100be00081c04800fcff3b000170a000240005000c
:100bf0000004be00e9ff07000003be000405be00bc
:100c00000200be00e5ff0700844f750000000600eb
:100c10000200be006450e100050036006420e100df
:100c2000020036000968a30001003a000800be0077
:100c30000160a0004f0678004f05be004f04be00c3
:100c400000000600f0ff2f00f1ff2700f9ff37003a
:100c5000811f78000100e00002003d0060001000ec
:100c6000e08018000300e00002003d006001110078
:100c7000e08119003b0007004f00e00002003b004c
:100c800060001000e080180000000600889fbe0091
:100c90008a9fbe008c1f7800d5ff0700dcff330061
:100ca00003866c006450e100240032006420e100ff
:100cb000270032006150e100220032006120e10093
:100cc000210032008b854200eb07b1000134b800ef
:100cd000003ab8000804420089844a00013ab8008a
:100ce0000030b8008880400009014a000400330049
:100cf0000000400081804800020149008b05e900a6
:100d0000c909dd00830170000100320013002000da
:100d1000c814de004814dd004709de001200b200ee
:100d2000c808de000884700076ff070001f0a1000b
:100d30000cf0a70001f0a000beff37006120e10029
:100d4000c0ff32000801be000200be00f7ff3700fe
:100d50006150e100fcff3a00baff37000001eb00f0
:100d600042003700aa0007000400be000000060091
:100d7000881f7800030478000300e00007003d00ae
:100d800060001000e080180060011900e081190087
:100d900002003b0001f02d000300370004000700b3
:100da00008f0a70001f0a0004f0478000000060042
:100db000889fbe008a9fbe000082700004027100fe
:100dc00004827100260032000004be000200be0052
:100dd0006011b8006b092000950220000182cf004d
:100de0000a0039000541b1000082cf000700390038
:100df0000541b1000982cf00040039000541b1006e
:100e00000882cf00010039000541b10005425200bf
:100e1000120032000a003b0082817100610164000f
:100e20008100d1000080d3008984d3000884d300de
:100e30008b05e8000442e800f7ff3a00070037009e
:100e40000804440089844c00000048008180480068
:100e50008b05e9000442e900f9ff3a0029ff070089
:100e60004f05be004f04be0000000600889fbe0074
:100e70008a9fbe008c9fbe00820578000004be00e1
:100e800046ff07000800be006420e10007003900ab
:100e900002003a00f1ff2700f0ff2f000160a000e0
:100ea0001202200072818800550037006120e100a5
:100eb00003003a000b00a70001f8230050003700a0
:100ec00001f0a100020021009364240060000700eb
:100ed0000800be0004003500b2fd2000930c240081
:100ee0005d0007000004be000005eb000b00a6003b
:100ef0004f0dde0001f0a1000004be0032982f006b
:100f000023ea230061ff07000001eb0003f0230048
:100f10000b00a70003f8230035fe0700d3fe0700ef
:100f20000000a7000a00a200f1fe07000b00e0008d
:100f3000030032000200200003f023002bfe070014
:100f400001f0a2000006be0002002000930424006d
:100f50004eff07000801be0025fe0700809fbe006f
:100f60000c00be0022a22a00d3a7230047ff0700df
:100f70004f01be001efe07000004be0001f0a100ec
:100f80000200200003982300310007000800be0083
:100f9000190035000001be003cff07000006be003e
:100fa000b2c52900e362230038ff070022222b008c
:100fb000f3942b000efe07000c01be0033ff070068
:100fc000e273280083c0230009fe07000c01be0065
:100fd0002eff070042aa2a00a3e22b0004fe07000e
:100fe0000c01be0029ff07000801be0027ff070013
:100ff0000801be00fefd07000a00a70001f0a200e4
:101000004f06be004f05be004f04be0000000600a4
:101010006022b800060220000000d0008180d200cb
:101020000482d2008582d2000000a0000202520099
:1010300083825a00030031000202420083824a0088
:101040000000a1000603e900f3ff3a0000000600db
:101050001400200051003700040020000000370079
:10106000889fbe008a9fbe008c1f78004f26dd003f
:10107000dffe0700e6fe33006120e100430032009e
:101080006250e10041003e003e0039006420e10072
:101090003c003200058255000f003b000402e800ce
:1010a00038003a00800f5300818f5b003500340018
:1010b0000800be0003f0a10001f0a60003f0a000ac
:1010c0000cf0a700cafd0700dafe37000603430054
:1010d00087834b000c4646000005530081855b006a
:1010e000020033000a03be000c00a0000402e90065
:1010f000f6ff3b00850578000602430087824b001f
:1011000004003a006000b80009f0a70001f0a00058
:10111000c8fe37000002520081825a000704e00036
:10112000040033000603430087834b008b05e9006e
:10113000faff3700090578000604be000203be006e
:101140006011b8006ffe0700e00f5200e08f5a00f8
:101150000700350002003c000c08a3000400320028
:101160000601be0003f0a0000cf0a700a0fd0700e0
:101170000a85680001f0a1000af0a70001f0a000b4
:10118000acfe37000800be00aafe370010022000a7
:101190000cf0a60070818800aafe3700889fbe0070
:1011a0008a9fbe00841f780091fe07004f007800e0
:1011b00011003300f0ff2f00838f6c0006003b000e
:1011c000040565000a00a7000800370009f0a60022
:1011d0001000200008003700820f5400838f5c004d
:1011e000030039001000200001003e000000200034
:1011f00009f0a7000000ea004f05be004f04be0042
:101200000000e00000000600800078000100780087
:101210003041780003c2b300834f5100faff32001f
:10122000e94f5100f8ff3200edc14100834f5100fa
:1012300003003a008000780013c0b30005003700b7
:101240008041eb00b4c2b300844f510001003a006a
:10125000800078000000eb0002003700ea00b900cf
:10126000000041003101fb000203b100e90f510011
:10127000faff36000304e000010032000000ea003b
:10128000000006008001780002003700b1597800a4
:101290000201e9000200e000fcff3a000000060045
:1012a0008001780002003700815978000201e900ce
:1012b0000200e000fcff3a00000006000001780098
:1012c00082017800030178003204e000fcff3a005c
:1012d00031417800825978000204e000fcff3a00b6
:1012e000000006000001780002007800b04178009c
:1012f00081cf5100030032000304e000f9ff3a00ff
:101300000001eb0002007800000006008000780079
:101310003104e000feff3a000080ea000080400057
:1013200000000600889fbe000004be000800e00028
:1013300003003a0078b080000800e000130032009b
:101340000800be00ff060700000444001804e00087
:1013500004003a000000eb0070b088000004eb00cd
:101360000a0037000800be00e30607000000440042
:1013700070b088001004e000020032000058eb005a
:10138000010037000000eb0070b088000800780012
:101390004f04be00000006000c00fa00889fbe004b
:1013a00000047800f0ff2700d0bf9f008004eb000e
:1013b00099bf9f0088bf9f00a8bf9f00200c2000fe
:1013c000b0bf9f0078815700cfb097007080570062
:1013d000cf0007000fb89700094878008fb8970032
:1013e000088050004f04be000080fa000000060094
:1013f0000800fa00889fbe008a9fbe000084fb00a0
:10140000d1c6b300814f5000340036004b06200097
:10141000110009000b84d80081057800720040009b
:101420004300dd0089392100008044006022b800bb
:101430000600200007fe23005001be004000be0051
:10144000d70807000002be000203be0084bf9f0051
:1014500095bf9f00a6bf9f00b7bf9f00aa002000b6
:10146000110009008a85d80080057800e9854500cb
:10147000c35ddd008b8544003b02be002b03be0034
:101480000fb897009fb897002fb99700bfb9970082
:10149000c30807000002be000203be0084bf9f0015
:1014a00095bf9f00a6bf9f00b7bf9f001100090016
:1014b0000a84d800010478004344dd008884440095
:1014c0003902be002903be000fb897009fb89700ed
:1014d0002fb99700bfb997001d003700ea4f5000a1
:1014e00013003600aa002000110009000a84d80069
:1014f00001057800690440004344dd00893921007a
:10150000088444006022b8000600200007fe230083
:101510003800be002801be00a10807004355dd00c9
:101520008a8444003902be002903be000800370047
:101530004344dd0080392100080440006022b800e7
:101540000600200007fe23003800be002801be0070
:10155000930807004f05be004f04be000080fa004c
:10156000000006000800fa00889fbe008a9fbe00a7
:10157000d1c6b3000004e00023003d000040ea00b3
:101580000004fb00814f50000a0034004206200096
:10159000110009000204d800a90020001100090070
:1015a0008900d800e9004000c308dd008a39210025
:1015b00021003700ea4f500010003400a200200044
:1015c000110009000204d800010178006900400000
:1015d0004300dd0081392100008040004311dd001f
:1015e000828040003102be002103be005001be00d7
:1015f0004000be006a080700380037004344dd00a1
:1016000080392100320037000004fb00814f500078
:101610002300340042062000110009000204d80013
:10162000a9002000110009008900d800e90040004d
:10163000c308dd008a2e2100810045003102be0072
:101640002103be008b0920008a8545003b00be00b7
:101650002b01be00520807000002be000203be00bc
:1016600084bf9f0095bf9f00a6bf9f00b7bf9f008c
:10167000110009000904d800010478004344dd008a
:10168000080545003a02be002a03be000fb89700c5
:101690009fb897002fb99700bfb99700d5ff3700c3
:1016a000ea4f500008003400a20020001100090099
:1016b0000204d80001017800690040004300dd0009
:1016c000812e2100c4ff37004344dd00802e21001d
:1016d000080440003800be002801be004f05be00cf
:1016e0004f04be000080fa0000000600d001900008
:1016f000028151004240a90003003400100178002b
:10170000014978000208e8000100780000000600a6
:10171000ef03b000889fbe008a9fbe008c9fbe0072
:101720008e1f780000067800e19f9f0082af9f0027
:101730006000b8006011b80080a79f0091a79f00cb
:10174000a2a79f00b3a79f008006eb009b05370070
:10175000ef9897008100e800e19f9f0051c2b3001d
:10176000814f500003003a006f9997000007eb008b
:1017700011003700bc0090000000fb000168a300ce
:10178000070032000d017800800078000c0078001e
:10179000d6ff07000000e00005003a00870537008b
:1017a0008c00780091050700e10f400083053200ae
:1017b0008d06e8008105370002007800b24078000d
:1017c000d3c2b30083cf50000c00320007003c00ae
:1017d000edc1510083cf50000a003200ebc141003f
:1017e00083cf50000d003a000800370003c3b30058
:1017f00083cf500009003a00060037000e30a000e9
:10180000edff37000e00a000ebff37000e10a00028
:10181000e9ff37000e20a000e7ff37000e18a300f5
:10182000010032000e00a1000e38a30001003200ba
:101830000e20a1000101fb000203b100e90f5100dd
:101840000e003e00800078000001eb0092b79f0080
:10185000ea11b9003100fb000003b10002014000b1
:10186000010078009101fb000303b100e98f5100f2
:10187000f7ff360092b79f000a0037008001eb00a7
:1018800093b79f00a2c2b30082cf500005003a0078
:101890000faa9700c402780084af9f0095b79f00fd
:1018a0000000e800e1c2b30090cf100017003a003a
:1018b0000ee0a000e4c05000d0cf100003003200c2
:1018c000800078008001eb00090037008fab9700a3
:1018d000c700780087af9f00d1af9f000000e800ed
:1018e000000178000d003700ea18b90080014100be
:1018f000010078003101fb000203b100e90f510043
:10190000f9ff3600d3af9f00f5ff37000ec0a000ef
:101910000001eb00d2af9f00f1ff37008201780099
:101920003340780003017800c1c6b300814f5000f6
:101930002b003200e39f9f0014003c00e8c05000e1
:10194000814f50002400320009003c00ecc05000e0
:10195000814f50002e003200ebc04000814f5000fc
:10196000980032000004e00019053200b40037008e
:1019700061c6b300814f50001f003200e3c0400039
:10198000814f5000ae003a001300370031c7b3005a
:10199000814f50002200320007003c00e4c050009c
:1019a000814f5000170032008140e800814f500005
:1019b000a3003a001600370051c7b300814f500012
:1019c000a4003200e3c04000814f50009c003a0068
:1019d000e0779f0010003700e0779f009f003700fe
:1019e000000120000e48a300010032000000280082
:1019f0000e077000c9ff3700e0779f000ea0a0001f
:101a000096003700e0779f000e60a000930037003b
:101a1000e0779f000e50a0000e70a0008f003700ee
:101a2000e0779f008fa997004300780083af9f0065
:101a3000000478000000e00001003a00a846210000
:101a4000080178000000eb00010037000000e8000a
:101a5000800041001104e000fcff3a00800478009f
:101a60005faa97000400e00003003200890f5200d3
:101a700001003100840478008001eb009fb29700e0
:101a8000898f520001003600898152006803670087
:101a9000d6af9f002c003a000307780011003700f2
:101aa0003c0090000068a300070032000d017800a0
:101ab000010220000c0078000cff07000000e0008d
:101ac00006003a00060037008c0078000002200073
:101ad000c6040700e10f4000010032008d06e80057
:101ae0000e07e9000e00e000edff3a008081eb00f8
:101af000150037003c0090000068a3000900320088
:101b000008007800b000fb00000478000d017800a8
:101b10000c007800f5fe07000000e00008003a0025
:101b20000a003700880078003100fb0001047800cb
:101b30008c007800ad040700e10f40000300320084
:101b40008d06e800010037000307780009007800df
:101b50008004e9000000e000e6ff3a008e01780012
:101b6000dfab97000700e000940432000307780021
:101b7000110037003c0090000068a300070032000d
:101b80000d017800010220000c007800d7fe07004c
:101b90000000e00006003a00060037008c007800e4
:101ba0000002200091040700e10f40000100320014
:101bb0008d06e8000e07e9000e00e000edff3a0098
:101bc0007e0437008fa897004100780081af9f0006
:101bd0006102b900612bb90094af9f00a5af9f00cf
:101be000b6af9f00c7af9f004822de004828dd0047
:101bf00004027000e4779f000e48a3000900320041
:101c00000404e00007003200e14f4200050032000a
:101c1000f4779f00afd09700817f9f0029002000bc
:101c2000030037002fd19700f2779f0019002000a2
:101c300063fb2f008f8141000304e80088ff370019
:101c4000e0779f0068fb2f000f044400190020007c
:101c500083ff3700e0779f000e0cb3000070200078
:101c600000006700640232000ec8a30002003200c8
:101c700064002000d4af9f000e48a300090032008a
:101c80000faa97004401be004400be0084af9f002d
:101c900090af9f00a1af9f00b2af9f00c3af9f0066
:101ca0000a0037008faa97004500be0085af9f004d
:101cb000230607000002be000203be0094af9f008f
:101cc000a5af9f00b6af9f00c7af9f006022b800ce
:101cd0006033b8001fa89700afa897003fa99700ee
:101ce000cfa99700680507000000e0000a003d004a
:101cf0001fa89700afa897003fa99700cfa997000a
:101d000003f0a20090af9f00a1af9f00b2af9f0071
:101d1000c3af9f003e00b3000000eb00d09f9f00c8
:101d20006022b8006033b8001fa89700afa89700e2
:101d30003fa99700cfa99700b70507000000e00072
:101d400034003200a4fb2f000f0242001fa89700ae
:101d5000afa897003fa99700cfa997007306070087
:101d60005f9897000000e900e300b900a20020009e
:101d7000110009000200d800d09f9f000000e00081
:101d800002003d000000e900d09f9f005f9c97008b
:101d90000840ea00f3fd07001faa9700afaa9700ca
:101da0003fab9700cfab97007d0607000002be0057
:101db0000203be0084a79f0095a79f00a6a79f00cf
:101dc000b7a79f006022b8000600200007ff23008d
:101dd0002d0507000000e00002003d000804e900b6
:101de0000b0037006022b8000600200047022400e4
:101df0000fa097009fa097002fa19700bfa1970069
:101e0000260507000000e000020035000804e80095
:101e1000d89f9f00dfaa9700f88f52000f003c0068
:101e20000540780072fd07000002be000203be00fc
:101e30001fa89700afa897003fa99700cfa99700c8
:101e4000940407000002be000203be0094af9f008e
:101e5000a5af9f00b6af9f00c7af9f005f9c9700e4
:101e6000e90f540015003c006022b8006033b80050
:101e70001fa89700afa897003fa99700cfa9970088
:101e8000650507000000e000320032001fa897003f
:101e9000afa897003fa99700cfa99700c7050700f3
:101ea000e00f5000e08f5800e00f5900e08f59001c
:101eb00028003a00e10f54002600340004002000fe
:101ec00005002e00b6e02200170124000fa09700a5
:101ed0009fa097002fa19700bfa19700ea040700d9
:101ee0000000e00002003d007304540001003700d0
:101ef00072045400d89f9f002f78970099fd070027
:101f00000002be000203be0084a79f0095a79f00a9
:101f1000a6a79f00b7a79f001fa89700afa897008c
:101f20003fa99700cfa99700e1040700a305070088
:101f30000205be000004be006000b8006011b800d9
:101f400090af9f00a1af9f00b2af9f00c3af9f00b3
:101f5000170037001fa89700afa897003fa9970068
:101f6000cfa99700950507000205be000004be003a
:101f7000c30507000002be000203be001fa89700b1
:101f8000afa897003fa99700cfa99700790607004f
:101f90000002be000203be0094af9f00a5af9f00e9
:101fa000b6af9f00c7af9f000000eb00d09f9f001f
:101fb000a547210014c0b300080037003500be005b
:101fc0003501be000040e10001c8e10002d0e1009f
:101fd00003d8e100030039000442e800f44f520046
:101fe000f6ff3a00e4779f005f9897009fb2970052
:101ff000008052005fab9700860050000400fb0099
:102000000080500090b79f000600e0000200320000
:102010000000e90090b79f006300670003003200f2
:102020009fb397008703e90097b79f000e28a3008e
:1020300050003200610167000e18a3000f0032004b
:102040003c0090000068a30006003200b1022000ae
:102050000200e000010032008180e8000d017800fc
:102060000d003700b00220000200e0000100320045
:102070000080e8008c0078000e0037000200e000cd
:10208000330032003c0090000068a30007003200db
:102090000d017800010220000c00780093fd07007c
:1020a0000000e00006003a00290037008c007800ac
:1020b000000220004d030700e10f40002400320021
:1020c0008d06e800220037003c0090000068a30065
:1020d0000f0032000d017800010320000c00780091
:1020e000f4b79f0085bf9f00d6b79f00e7b79f005a
:1020f0007efd07007fb297008fba97005fb397000d
:10210000efb397000000e0000e003a000e00370029
:102110008c00780000032000f4b79f0085bf9f006b
:10212000d6b79f00e7b79f00300307007fb2970044
:102130008fba97005fb39700efb39700e10f4000ad
:10214000010032008d06e8008904e9000300370031
:102150000802be000a03be009fb497000900e00019
:10216000d9ff3c0099b79f000605be000404be00dd
:10217000670037000e38a3001e003a00c8a79f0072
:10218000d9a79f00eaa79f00fba79f009fb49700d5
:10219000110037003c0090000068a30007003200e7
:1021a0000d017800010220000c0078004ffd0700af
:1021b0000000e00006003a00060037008c007800be
:1021c0000002200009030700e10f40000100320077
:1021d0008d06e8008904e9000900e000edff3c00fd
:1021e00099b79f004fa49700dfa497006fa59700b1
:1021f000ffa59700610167000e18a3000e003200d2
:102200003c0090000068a30005003200b1022000ed
:102210000200e000250032008180e8002300370042
:10222000b00220000200e000010032000080e8005f
:102230008c007800320037000200e00034003200e9
:102240003c0090000068a300030032000d017800fc
:1022500001022000160037008c00780000022000e8
:10226000270037003c0190008100fb00204721003f
:102270000268a30013003200c308dd000100400023
:102280003002be002003be000800be000a01be00ee
:1022900059060700a4002000050020006033b800a4
:1022a0005c06070001032000808040000d017800db
:1022b0000c0078000dfd07000000e00013003a005c
:1022c00013003700c308dd00010040003002be00eb
:1022d0002003be000800be000a01be00460607003b
:1022e000a4002000050020006033b8004906070064
:1022f00002032000000141008c00780002007800f9
:10230000ba020700e10f4000010032008d06e8002c
:102310006f7097008040e900e1779f000004e000c3
:10232000d0ff3a00130037003c0090000068a30083
:10233000070032000d017800010320000c00780036
:10234000eafc07000000e00006003a000600370043
:102350008c00780000032000a4020700e10f400079
:10236000010032008d06e8005f9897000000e90048
:10237000d09f9f005f9897000000e000eaff3c00bc
:10238000dfa89700f28f50000300340020c1b30093
:10239000e0779f00020037002fd99700e2779f0077
:1023a0006f7097008000fb00dfa9970081805100cb
:1023b000d1af9f000004e000100032003c0090000c
:1023c0000068a300070032000d017800e102200040
:1023d0000c007800c5fc07000000e00006003a0091
:1023e000060037008c007800e00220007f02070022
:1023f000e10f4000010032008d06e8006f70970089
:1024000058fc07000002be000203be001fa8970090
:10241000afa897003fa99700cfa99700e004070055
:1024200066040700330037003c019000214721007b
:102430000000fb000268a300130032004300dd002f
:10244000008040003002be002003be000800be0035
:102450000a01be00e8050700a400200005002000d6
:102460006033b800eb0507000003b0000d017800f1
:10247000800078000c0078009cfc07000000e00061
:1024800011003a00110037004300dd0000804000d9
:102490003002be002003be000800be000a01be00dc
:1024a000d5050700a4002000050020006033b80017
:1024b000d80507000003b0008c0078004b0207002d
:1024c000e10f4000010032008d06e8006f729700b6
:1024d0000400fb004300dd00214721000080400094
:1024e0003002be002003be000800be000a01be008c
:1024f000c80507000205be000004be00ef7097008b
:102500000140e900e0779f000104e000c6ff3a00c7
:1025100098af9f00a9af9f00baaf9f00cbaf9f00bd
:10252000dfac9700110037003c0090000068a3006a
:10253000070032000d017800010320000c00780034
:102540006afc07000000e00006003a0006003700c1
:102550008c0078000003200024020700e10f4000f7
:10256000010032008d06e8008904e9000900e0005e
:10257000edff3a001fac9700afac97003fad97005e
:10258000cfad97000e38a3000c0232009fb0970029
:102590000100e00009023400d8af9f00e9af9f00be
:1025a000faaf9f008bb79f00810478003c00900039
:1025b0000068a300070032000d017800010220002e
:1025c0000c00780049fc07000000e00006003a001b
:1025d000060037008c00780000022000030207008c
:1025e000e10f4000010032008d06e8008904e90097
:1025f000eeff3a00f10137000e007800000cb20047
:1026000021003a000e00e00005003d008faa97006f
:102610004505be004504be0085af9f000d00370094
:102620000e48a300060032000fab97004604be0020
:1026300086af9f004fcdde008a0578000500370089
:102640008fab97004704780087af9f00cfc4de00b0
:10265000614db900e00f5400e08f5c00e00f5d00b9
:10266000e08f5d001b003d003e00b3006000b8003d
:102670006011b80008045000898458000a05590008
:102680008b855900130037000e00e00005003d0067
:102690000fa897004005be004004be0080af9f0019
:1026a0000c0037000e48a300050032008fa89700e9
:1026b0004104be006055b80081af9f00050037009f
:1026c0000fa997004204780082af9f008004eb00be
:1026d0006055b800dfa997000300e00009003a0048
:1026e00014002000d4af9f00e00f5400e08f5c0086
:1026f000e00f5d00e08f5d00020032008002eb0021
:10270000d5af9f000e037800060cb20096af9f0075
:1027100000042000800f53002c00320003003c0016
:102720000600e000080032003c00370000082000ee
:102730009fab9700808f530010003200000c2000e8
:10274000808f530035003a00a547210014c0b30024
:102750003500be003501be000040e10001c8e100c7
:1027600002d0e10003d8e1002b0039000442e80068
:10277000f44f5200f6ff3a002700370014c0b300b0
:1027800000012000010020006011b8000040e100bd
:1027900001c8e10002d0e10003d8e1001e003900c9
:1027a000450020000000d0008180d2000281d200cc
:1027b0008381d2008502e900faff3a000442e80072
:1027c000f04f5200f1ff3a001300370014c0b3007d
:1027d00080002000010020006011b8000040e100ee
:1027e00001c8e10002d0e10003d8e1000a0039008d
:1027f000360020000000d0008180d2000281d2008b
:102800008381d2000603e900faff3a000442e8009f
:10281000f54f5200f1ff3a00e4779f00ef73970005
:102820000700fb00dfa89700810f500002003d0069
:10283000e1779f00040037005fa99700800f5100e7
:1028400001003d00d0af9f009fb197000300e00062
:102850000400320063006700020032008301e900d7
:1028600093b79f000ee8a300090032001fb2970043
:10287000dfaa9700850f52000300340005025200c2
:1028800094b79f00020037000003eb0096b79f004b
:10289000ef7397000700fb008000eb00c1a79f00cb
:1028a0001fb19700800f510002003400000051005a
:1028b000c0a79f000e28a3004400320061016700fa
:1028c0000e18a3000f0032003c0090000068a30027
:1028d00006003200b10220000200e00001003200d8
:1028e0008180e8000d0178000d003700b002200063
:1028f0000200e000010032000080e8008c00780057
:102900000e0037000200e000100032003c00900092
:102910000068a300070032000d01780001022000ca
:102920000c00780071fb07000000e00006003a0090
:10293000060037008c007800000220002b01070001
:10294000e10f4000010032008d06e800cfa19700a2
:102950000300e0006200320098b79f00a9b79f0013
:10296000bab79f00cbb79f00830478003c0090006b
:102970000068a300070032000d0178000103200069
:102980000c00780059fb07000000e00006003a0048
:10299000060037008c0078000003200013010700b8
:1029a000e10f4000010032008d06e8008904e900d3
:1029b000eeff3a00c9a79f001fb49700afb497007d
:1029c0003fb59700cfb5970045003700cfa29700dd
:1029d0000500e0001e0032000e38a3001c003a0083
:1029e00098b79f00a9b79f00bab79f00cbb79f00c9
:1029f000850478003c0090000068a30007003200c6
:102a00000d017800010220000c00780037fb070060
:102a10000000e00006003a00060037008c00780055
:102a200000022000f1000700e10f40000100320029
:102a30008d06e8008904e900eeff3a00c9a79f006f
:102a40001fb49700afb497003fb59700cfb597007c
:102a5000610167000e18a3000f0032003c009000d7
:102a60000068a30006003200b10220000200e0006e
:102a7000010032008180e8000d0178000d00370070
:102a8000b00220000200e000010032000080e800f7
:102a90008c0078000e0037000200e00010003200c9
:102aa0003c0090000068a300070032000d01780090
:102ab000010220000c0078000cfb07000000e00081
:102ac00006003a00060037008c0078000002200063
:102ad000c6000700e10f4000010032008d06e8004b
:102ae0005fa997008200e900c308dd0020472100ac
:102af00000804000f09f9f0098b79f00a9b79f00fb
:102b0000bab79f00cbb79f0091003700dfaa9700ac
:102b10008502e900d5af9f00000420001fab97009d
:102b2000800f53006500320003003c000600e00007
:102b30000800320072003700000820009fab9700a9
:102b4000808f530048003200000c2000808f53001b
:102b50006b003a000e00e0001a003d007f989700dd
:102b60003004be002005be000802be000a03be00fd
:102b70001fb09700afb097003fb19700cfb197005b
:102b80001d040700e0779f000000fb00cf80de00ff
:102b90006109b9000802be000a03be007f040700f5
:102ba0001fb29700afb297003fb39700cfb3970023
:102bb0000002520081825a0002035b0083835b00a3
:102bc000170037000e48a3001a0032001fb297000a
:102bd000afb297007f9b97003604be002605be006b
:102be0000801be000400be00f4b79f0085bf9f002f
:102bf00007f90700e0779f000000fb00cf80de00b0
:102c00000801be005d0307007fb297008fba9700ee
:102c10000000520081805a000002be006033b800fc
:102c200094b79f00a5b79f00b6b79f00c7b79f0096
:102c300009003700ff9a9700150178001fb397002d
:102c4000110009000283d800a20020001100090031
:102c50000280d800e1779f00ef7397000743b00030
:102c6000e7779f0026003700904521000e58a3000b
:102c700001003200804421005fac9700c240dd00bb
:102c80001fb29700afb297003fb39700cfb3970042
:102c90008100e900050033008703d1000683d300db
:102ca0008582d3000482d300f9ff3700ef00620071
:102cb000010040001040780010003700dfa89700a6
:102cc000e308b9001fb29700afb297003fb3970077
:102cd000cfb39700000478000804e9000500330032
:102ce0008703d1000683d3008582d3000482d300fa
:102cf000f9ff3700674062000043b000e0779f00b3
:102d0000bc0090006f7197000200fb000168a300f7
:102d1000070032000d017800800078000c00780078
:102d200072fa07000000e00005003a0005003700d5
:102d30008c0078002d000700e10f400001003200f8
:102d40008d06e800ff999700e8815100f39f9f00ee
:102d50005faa97000400e0006cff3a000e38a30061
:102d600016003200cfa297000500e00013003400e7
:102d7000050778003c0090000068a30007003200bf
:102d80000d017800010220000c00780057fa0700be
:102d90000000e00006003a00060037008c007800d2
:102da0000002200011000700e10f40000100320086
:102db0008d06e8000e07e900eeff3a006f9b9700d2
:102dc00016407800e0779f000004e00060fa3a00c7
:102dd0000d0078004f0778004f06be004f05be007b
:102de0004f04be00ef03b10000000600889fbe0044
:102df00001047800b80090008084eb000118a30063
:102e00003a003200180190000198a30002003a0035
:102e10000200e00035003a000190a0003104980063
:102e200080047800f90fb2000200e00002003a00ce
:102e300028009000000c7800ea8f540005003a004a
:102e40000178a30003003a0088007800d000200039
:102e5000e6ff070018009000d8009000810f500096
:102e60000b0032000000e800100498001800780001
:102e700009487800000ce80011c0b3008060210010
:102e800001487800ea8f540018003a000500370026
:102e900088007800094078003d0007008004780031
:102ea00012003700380090000088a3000f003200a5
:102eb00018019000a800900048009000c4f5070099
:102ec00098009000810f50000400320038009000fc
:102ed0000003b300300498008084eb000000eb0096
:102ee0001004980028009000000c78000900780079
:102ef0004f04be0000000600889fbe008a1f7800b5
:102f000001057800800478000004eb000100370020
:102f10000804e800b94078000104e0000500320030
:102f20008100fb000a007800eef807000000e000d6
:102f3000f7ff3200080078004f0578004f04be000c
:102f400000000600889fbe008a1f780001057800f7
:102f5000800478000004eb00010037000804e8005a
:102f6000b94078000104e000050032008100fb0058
:102f70000a007800dbf807000000e000f7ff3a00e5
:102f8000080078004f0578004f04be0000000600de
:102f90000200fa00889fbe00a0ff9f000104780095
:102fa000380090000068a30033003a00e20060009f
:102fb00005003a000003b3003004980011049800a3
:102fc0000080eb002e003700d80490000900e000dc
:102fd00006003a0012002000e680570048009000ea
:102fe0007bf507001904980023003700a800900023
:102ff0000100e00008003a00b160210021049800bf
:10300000010c780021002000510498001104980060
:103010000030a0003004980018019000a800900033
:10302000480090006af50700280090008080eb00bf
:1030300011049800aff8970001487800000ce800f0
:103040002ff89700ea4f50000b003a00380090002c
:103050000088a3000800320018019000a80090002a
:10306000480090005af507000000eb00100498009b
:10307000a8009000010c7800aff897000100fb0059
:103080004f04be000080fa000000060000c0da0015
:10309000000006002800fa00889fbe008a9fbe003c
:1030a0008c9fbe0007067800878669000c003b00f5
:1030b000030478008704780008f0a10009f0a1005b
:1030c000840f5000858f5800860f5900890f5c00cf
:1030d000030033000cf0a20001003a000cf0a10044
:1030e000fe0007006400e1005f0032007801470045
:1030f0006408e100610032006c01470074855700ec
:103100003200be001201be003a04be001a05be0025
:103110001e039000be0a90008503530006003d0088
:103120000004fd008104fd000205fd008305fd0093
:103130008703ea00050378000df8a30004003200bd
:1031400060041400e0841c0060051d00e0851d0083
:103150006022b8007d0320000d38e1008006eb00fe
:103160000b0039004433dd00f300b200830173002b
:1031700039003700848272000d027800e106640095
:103180008b85d1000a85d3008984d3000884d300bd
:103190008703e900f7ff3b000800400089804800f2
:1031a0000a0149008b81490004003b0060001000c7
:1031b000e080180060011900e08119000358a300a5
:1031c000090032008d827200848272006102600008
:1031d0008301d1000281d3008180d3000080d3001d
:1031e0000603e8001b0037000348a30017003a005d
:1031f0000600e000170034000603e9000d00a300fc
:103200000000480081804800020149008381490094
:103210000348a3000f003a000600e0000900340054
:103220000603e900000040008180480002014900d7
:103230008381490001003a000003eb000348a3002a
:10324000f5ff32006022b80002003700848272006d
:10325000618266007500070003f0a1000cf0a70072
:1032600003f0a000b1003700640147006408e100ea
:1032700002003a000df8a300a9003a003200be0097
:103280001201be00a90037008f1fd100ec02070019
:103290008f87e9000000e00000000600809feb003f
:1032a000e70207008f87e9000000e0000000060049
:1032b0002800fa00889fbe008a9fbe008c9fbe0037
:1032c00003866b00850007006400e10044003200c3
:1032d0006408e1004a0032006100e100460032006b
:1032e0006108e10049003200ec0647006000b800c8
:1032f0003d02be003d03be00f48657006011b800d9
:103300003d04be003d05be007d0320000b003700dc
:103310000000a0008d06e900130032000402420004
:1033200085824a0006034b0087834b000000400063
:10333000818048000201490083814900080252004f
:1033400089825a000a035b008b835b00f0ff3b001d
:103350000802420089824a000a034b008b834b001b
:103360008d06e900edff3a008482720086827200c9
:10337000f707b200878272000100320015002000ba
:103380001e0490003e0b900006035400e63fb00080
:103390000368a300070032000000a7000500a0009a
:1033a0008301d1000281d3008180d3000080d3004b
:1033b0000603e8008301d1000281d3008180d3009d
:1033c0000080d3000002eb000482d2001700070047
:1033d00003f0a1000cf0a70003f0a0005300370099
:1033e000640247006408e1004d0032003400be0072
:1033f0003401be00f6ff37006108e10048003200ea
:103400006011b8006000b800f1ff370003ff27002b
:1034100002002000fbff3700801feb00880207003e
:103420008f87e9000000e00000000600180020007f
:1034300057002000080453000d003d000600200046
:1034400097fc2f000740e1001e00340084827200c8
:10345000610260008301d1000281d3008180d3002a
:103460000080d3000804e800f8ff3a00470020007d
:103470006104600005047400040464000d0032005f
:1034800061004000e080480060014900e08149009f
:1034900003b8a500070032000603e8006538e10024
:1034a00004003a008301d1000281d3008180d3005f
:1034b0000080d300f87f20000830e10003003500d1
:1034c000080378006000b8006011b8004433dd00e4
:1034d000f300b20083017300000006006804470097
:1034e0000294be000094be00fc0447008694be0017
:1034f0008494be00090078009a0207000800780052
:103500009802070099007800814f70000b003b0083
:103510000800be00730207004f00b100030037002f
:10352000f3ff2700f2ff2f006110b9004f06be0025
:103530004f05be004f04be000080fa0000000600e8
:103540008103780095f507000001be006000b80017
:103550000478a30013003a006220e10015003e0049
:103560000d0039008301d1000281d3008180d30096
:103570008301d1000281d3008180d3008301d10077
:103580000281d3008180d3000538b000c42add0059
:10359000f300b2008381720007f0a70003f0a000df
:1035a00000000600f3ff2700f2ff2f006110b900b2
:1035b000fbff370003ff2700f7ff37001400fa0076
:1035c000889fbe008a9fbe008c9fbe000004be0084
:1035d0000205be00680047000a90be000890be00c9
:1035e000600207000070a7000bf0a1000bf8a30019
:1035f00020003a009e0990000e099000fe00900005
:103600006e0090009e02900034432000848252009d
:10361000c6ff32000a003c00b4fc2f000428e10081
:10362000140034008301d1000281d3008180d300d3
:103630000080d3008502e800faff3a00bbff3700a4
:10364000b40020000428e10007003c000000400016
:103650008180480002014900838149008502e90018
:10366000faff3a00b1ff37000300280002002000f3
:10367000010037006011b8006000b800abff3700f0
:10368000889fbe00008270000402710004827100f5
:103690002400320036432000c50020008383cf0081
:1036a0000a0039000541b1008283cf0007003900cc
:1036b0000541b1008183cf00040039000541b1000c
:1036c0008083cf00010039000541b10085c353005c
:1036d0006022b800120032000a003b0084827200af
:1036e000610260008301d1000281d3008180d30098
:1036f0000080d3000603e8008743e800f7ff3a00a4
:1037000007003700000040008180480002014900a6
:10371000838149000603e9008743e900f9ff3a0085
:1037200042ff07004f04be00000006001400fa002c
:10373000889fbe008a9fbe008c9fbe000406780052
:103740000004be000205be00680047000a90be00eb
:103750000890be00030207006200e1000800be00fe
:103760000a01be00040020000b003a001e02900077
:10377000e43fb1006e009000fe0090000e09900042
:103780009e099000f300b20005fe230085817100c0
:103790000bf0a70003f0a000040e780063ff3700d1
:1037a0002800fa00889fbe008a9fbe008c9fbe0042
:1037b00003866b0049ff07000028a30064003a005d
:1037c0000128a30067003a000008a30062003a0045
:1037d0000108a30065003a001e009000be0890009a
:1037e00081064000ed3fb100f4805700ee019000eb
:1037f000111ab8008e099000311bb8009e09900084
:10380000311cb800511db800f48557004600070070
:10381000fe0190003a0007008b85e8003e0007009b
:103820008e09900040000700ee0190003400070070
:103830008b85e800380007008e09900040000700e3
:103840009e0990001b18b800890440000a854800b2
:10385000fe019000340007008b85e8003800070067
:10386000ee019000300007008e0990001b18b80090
:10387000890440000a8548000a98a30008003a001d
:103880000402420085824a0006034b0087834b00f6
:1038900008044c0089844c000a054d008d06e9009f
:1038a00084827200850273004c3add00850272004a
:1038b0000100320015002000443ade001400b2007e
:1038c0004538de00cb45dd000b007000c540de0052
:1038d000cb4ddd008b8070004549de00cb55dd000f
:1038e0000b017100c551de000d037800cffe07000b
:1038f00003f0a1000cf0a70003f0a0000bff3700bd
:103900001b18b8008502400006834800e0834b0086
:1039100060044c00070037001b18b8000603400085
:1039200087834800faff37001b18b8008703400060
:1039300008844800e0844c0060054d00000006004b
:103940001b18b8000804400089844800faff3700bb
:103950000108a300f2fe3a005800be005801be0064
:10396000e3ff37000008a300edfe3a0009047800e9
:10397000f9ff370007f0a200c6fd3700020ab900c0
:10398000001bb9000200b800810042008100430022
:1039900000000600889fbe008a9fbe0030044200df
:1039a000b0844a0030054b0090854b006000b100a8
:1039b0000898be000a90be000440e10005c8e1007e
:1039c00006d0e10007d8e1000200310068004000a5
:1039d0001008e8004f05be004f04be0000000600be
:1039e000889fbe008a9fbe003004be002005be0036
:1039f0000418540005985c0006185d0007985d00e7
:103a0000110020000440e10005c8e10006d0e100fb
:103a100007d8e100010039008000eb001088100099
:103a20004f05be004f04be00000006001200fa0061
:103a3000889fbe008a9fbe008c9fbe00e0b79f009b
:103a4000f1b79f0082bf9f0093bf9f000605be0095
:103a50000404be000000eb00d0b79f00c0b79f0079
:103a6000b0b79f00a0b79f0090b79f000006eb0083
:103a70005fb19700cfb09700820141003fb097003f
:103a80000200e00004003d00370007007e80570080
:103a9000c0ff070003003700330007007e80570097
:103aa000cfff0700dfb697000d00e0000c003500e7
:103ab0006fb29700ffb297000fbb97009fbb9700b4
:103ac00010002000010020006011b8000002720008
:103ad0008182720002037300838373001b0007005e
:103ae0000c06e80001042000810f5600e0ff3a00b8
:103af0000d00e00004003d000802be000a03be0005
:103b00007e805700a3ff07005fa897000000e00039
:103b100005003a001fb29700afb297003fb397007d
:103b2000cfb39700090007006fb09700ffb0970070
:103b30000fb997009fb997004f06be004f05be0012
:103b40004f04be000080fa000000060001000700dc
:103b500000000600a4b79f00b5b79f00c6b79f003e
:103b6000d7b79f00000006004f09de008281710078
:103b7000b3b79f004f01de0081804000828070005b
:103b8000a1b79f008fb097004f09de0000004000f2
:103b90000200700090b79f007fa897004f01de00e1
:103ba000818040008280700081b79f000d00070077
:103bb0004f3ade000000400004007000f0af9f00ac
:103bc000080007000402420085824a0006034b00f9
:103bd00087834b00dfff07000802be000a03be0018
:103be000000006002fb29700bfb297004fb39700b6
:103bf000dfb3970000000600881f7800180020003f
:103c0000881f780089ff07008f87e9004f0478003c
:103c100000000600801feb0084ff07008f87e9008b
:103c200000000600889fbe008a9fbe00e00f500083
:103c3000e08f5800e00f5900e08f59000c003d0064
:103c40006044b8006055b8000000540081805c00fa
:103c500002015d0083815d0018002000150007004f
:103c600008003d00180007000004eb0005003700c5
:103c70000004eb000f00070002003d0012000700e7
:103c800018002000dcff07000800e00006003200fa
:103c90006022b8006033b8000000520081805a00f2
:103ca00002015b0083815b004f05be004f04be0034
:103cb00000000600e00f5200e08f5a00e00f5b00aa
:103cc000e08f5b00000006006044b8006055b8005b
:103cd0000402540085825c0006035d0087835d005a
:103ce00000000600889fbe008a9fbe008c1f7800df
:103cf000e00f5000e08f5800e00f5900e08f5900ae
:103d00000d003d006044b8006055b800000054004c
:103d100081805c0002015d0083815d001c00200049
:103d20000820e10009a8e1000ab0e1000bb8e100b9
:103d30000d003d00080037000006eb00e00f5200c8
:103d4000e08f5a00e00f5b00e08f5b0006003d0053
:103d50006044b8006055b8000402540085825c00dd
:103d600006035d0087835d00aaff07000c00e000ea
:103d7000060032006022b8006033b8000000520034
:103d800081805a0002015b0083815b004f0678004e
:103d90004f05be004f04be0000000600889fbe0015
:103da0008a9fbe008c1f78000006eb00e00f5000d9
:103db000e08f5800e00f5900e08f590007003d00e8
:103dc0006044b8006055b8000000540081805c0079
:103dd00002015d0083815d001c002000e00f5200a5
:103de000e08f5a00e00f5b00e08f5b0007003d00b2
:103df0006044b8006055b8000402540085825c003d
:103e000006035d0087835d000c00a2007c000700b4
:103e10000c00e000060032006022b8006033b800f9
:103e20000000520081805a0002015b0083815b0028
:103e30004f0678004f05be004f04be00000006008c
:103e4000889fbe008a9fbe008c9fbe000404be00f7
:103e50000605be00809fbe00829fbe002f000700a7
:103e6000040678000800be000a01be002b0007000f
:103e7000840678004f03be004f02be008d4f7600cf
:103e80007fb0970013003300f0ff2f008b8f6b0083
:103e900006003b000d0666000c00a7000a00370074
:103ea00007f0a600100020000a003700880f52001b
:103eb000898f5a008a0f5b008b8f5b0003003900eb
:103ec0001000200001003e000000200007f0a700c5
:103ed0000000ea004f06be004f05be004f04be00c2
:103ee00000000600e48240001078a30007003200c2
:103ef000640240001178a3003400be001401be002b
:103f0000040032000330a700000006003500be00a8
:103f10001501be000330a0000000060005ff2700c9
:103f200005826100070032000428e1000100320030
:103f3000240005000600070001003a0044000500c7
:103f40000408050002000700f9ff3a00140005000c
:103f50006f8261008102700085027100850272002b
:103f600000000600800078005002be005003be0032
:103f70004439de00f700b200f37f20000301610046
:103f8000090032000218e10016003a0085017200b3
:103f900083017300838173000008200015003a003c
:103fa0004000200013003700850172008301730078
:103fb0008381730005003a0004a8be0006a8be0075
:103fc000100020000b0037000201e900040242004b
:103fd00085824a0006034b0087834b000748a300f5
:103fe000f9ff32000740a00004a8be0006a8be00ea
:103ff0002000200080009800920098000000060039
:10400000889fbe008a9fbe008c9fbe000404b8003b
:104010000506b8008904460060854e000606b80013
:104020000a054600e0854e000706b8008b054600ed
:10403000040eb800890446000a854e00e0854d0054
:10404000050eb8000a0546008b854e00060eb80026
:104050008b0546000416b8000a0546008b854e0005
:104060000516b8008b054600041eb8008b054600f7
:104070000800be000a01be004f06be004f05be008c
:084080004f04be000000060021
:020000040000fa
:10408800496e0000697400002e200000436f000094
:104098006d7000006c650000746500000d0a00007a
:1040a800003100003a20000025310000306c00008b
:1040b8006420000025310000306c000064200000fe
:1040c80025310000306c000064200000253100001c
:1040d800306c00006420000025310000306c0000c6
:1040e8006420000025310000306c000064200000ce
:1040f800203200003a20000025310000306c00001a
:104108006420000025310000306c000064200000ad
:1041180025310000306c00006420000025310000cb
:10412800306c00006420000025310000306c000075
:104138006420000025310000306c0000642000007d
:10414800203300003a20000025310000306c0000c8
:104158006420000025310000306c0000642000005d
:1041680025310000306c000064200000253100007b
:10417800306c00006420000025310000306c000025
:104188006420000025310000306c0000642000002d
:104198000d0a0000000000002c000000242500008b
:1041a800662c0000256600002c250000662c000007
:1041b80025660000002a0000255800000d0a0000ae
:0441c80000000000f3
:020000040000fa
:1041cc000800fa00000f78001107980022079800e9
:1041dc0033079800680007009100070011000700e2
:1041ec005100070023eba8000000000011598000cb
:1041fc0000002800008060000000e000fbff3a0097
:10420c001e0090009b0b07001e0078001a0c070084
:10421c003e00900068030700000307000080fa00ce
:10422c00000006000000fa00c05d2000206088003d
:10423c00ca2cef00506680005065880050658000e5
:10424c005064880050648000506388005063800084
:10425c00506288005062800050618800cc2cef00c6
:10426c00606680006065880060658000606488001e
:10427c006064800060638800606380006062880016
:10428c00606280006061880000002c00106688006d
:10429c00106680001065880010658000106488002e
:1042ac001064800010638800106380001062880026
:1042bc001062800010618800c02cef000066800046
:1042cc000065880000658000006488000064800040
:1042dc000063880000638000006288000062800038
:1042ec000061880030002000206688002066800075
:1042fc002065880020658000206488002064800090
:10430c002063880020638000206288002062800087
:10431c0020618800022cef0000002800006088005b
:10432c000080fa00000006000000fa003002a9002c
:10433c00801180000010a1000020a10080118800d5
:10434c0030a2a9003062a80020012000c011880012
:10435c0033a2a90033e2a900901180000060a100f3
:10436c000070a1009011880031e2a8003342a8002f
:10437c000080fa00000006000000fa00a0042000f3
:10438c00303a8800213a800000fe2f000080600047
:10439c00203a8800203a80000060a1000070a10043
:1043ac00203a88001200200080072000a10920007c
:1043bc003374200080497800814978008249780064
:1043cc00103a8000000178000200a0006004200078
:1043dc007105200023742000804978008149780001
:1043ec008249780000000000113a8000000027008c
:1043fc008080600000002100808f5000faff3a009e
:10440c0000000000113a80000002200000806000d3
:10441c000000e000fbff32000080fa000000060004
:10442c000000fa009024ef008e24ef008225ef00ac
:10443c00de24ef00de44a800de24a8000026ef00f6
:10444c000c26ef000622ef001622ef000e2eef00d6
:10445c001e2eef002e2eef003e2eef004e2eef0004
:10446c006e2eef0011eea90011cea90011aea9001d
:10447c00118ea90001eea900007080004f00de0033
:10448c00004078000080fb00610060004800dd0007
:10449c0082718000f1ef2f0081006100010070003b
:1044ac0080718800807180004800de0061406000ef
:1044bc000080fb00610060004900dd00827180001b
:1044cc00f1df2f0081006100010070008071880015
:1044dc00807180004900de00614060000080fb00bc
:1044ec00610060004a00dd0082718000f1bf2f0086
:1044fc008100610001007000807188008071800073
:10450c004a00de00614060000080fb00610060003a
:10451c004b00dd0082718000f17f2f008100610073
:10452c000100700080718800807180004b00de00fb
:10453c00614060000080fb006100600082718000bf
:10454c00e1ff2f0081006100010070008071880084
:10455c0007eea800307080004f00de0000407800ad
:10456c000080fb00610060004800dd00b27180003b
:10457c00f1ef2f008100610001007000b071880024
:10458c00b07180004800de00614060000080fb00dc
:10459c00610060004900dd00b2718000f1df2f0086
:1045ac008100610001007000b0718800b071800062
:1045bc004900de00614060000080fb00610060008b
:1045cc004a00dd00b2718000f1bf2f008100610054
:1045dc0001007000b0718800b07180004a00de00ec
:1045ec00614060000080fb00610060004b00dd005a
:1045fc00b2718000f17f2f0081006100010070001a
:10460c00b0718800b07180004b00de00614060002a
:10461c000080fb0061006000b2718000e1ff2f00a0
:10462c008100610001007000b071880005eea800e7
:10463c00207080004f00de00004078000080fb00fe
:10464c00610060004800dd00a2718000f1ef2f00d6
:10465c008100610001007000a0718800a0718000d1
:10466c004800de00614060000080fb0061006000db
:10467c004900dd00a2718000f1df2f008100610094
:10468c0001007000a0718800a07180004900de005c
:10469c00614060000080fb00610060004a00dd00aa
:1046ac00a2718000f1bf2f00810061000100700039
:1046bc00a0718800a07180004a00de00614060009b
:1046cc000080fb00610060004b00dd00a2718000e7
:1046dc00f17f2f008100610001007000a071880043
:1046ec00a07180004b00de00614060000080fb0088
:1046fc0061006000a2718000e1ff2f008100610069
:10470c0001007000a0718800002ea90000708000cc
:10471c000000d100614060000080fb00610060007f
:10472c004d00dd0082728000f1ff2d0081006100e0
:10473c000100700080728800807280004d00de00e5
:10474c00614060000080fb00610060004c00dd00f7
:10475c0082728000f1ff2e00810061000100700068
:10476c0080728800807280004c00de006140600026
:10477c000080fb00610060004e00dd008271800053
:10478c00f1ff2b0081006100010070008071880036
:10479c00807180004e00de00614060000080fb00f4
:1047ac004f00dd0082718000f1ff27008100610065
:1047bc000100700080718800807180004f00de0065
:1047cc00004078000080fb006100600002708000f7
:1047dc00e1ff2f0081006100010070000070880073
:1047ec00062ea800307080000000d10061406000ef
:1047fc000080fb00610060004d00dd00b2728000a3
:10480c00f1ff2d008100610001007000b072880082
:10481c00b07280004d00de00614060000080fb0043
:10482c00610060004c00dd00b2728000f1ff2e00d0
:10483c008100610001007000b0728800b0728000cd
:10484c004c00de00614060000080fb0061006000f5
:10485c004e00dd00b2718000f1ff2b008100610081
:10486c0001007000b0718800b07180004e00de0055
:10487c00614060000080fb004f00dd00b2718000e1
:10488c00f1ff27008100610001007000b071880009
:10489c00b07180004f00de00004078000080fb000b
:1048ac006100600032708000e1ff2f008100610028
:1048bc000100700030708800042ea8002070800069
:1048cc000000d100614060000080fb0061006000ce
:1048dc004d00dd00a2728000f1ff2d00810061000f
:1048ec0001007000a0728800a07280004d00de00f4
:1048fc00614060000080fb00610060004c00dd0046
:10490c00a2728000f1ff2e00810061000100700096
:10491c00a0728800a07280004c00de006140600034
:10492c000080fb00610060004e00dd00a271800081
:10493c00f1ff2b008100610001007000a071880064
:10494c00a07180004e00de00614060000080fb0022
:10495c004f00dd00a2718000f1ff27008100610093
:10496c0001007000a0718800a07180004f00de0073
:10497c00004078000080fb00610060002270800025
:10498c00e1ff2f00810061000100700020708800a1
:10499c00602ea900007380000000d100614060000f
:1049ac000080fb006100600002738000e1ff2f00bb
:1049bc0081006100010070000073880000738000aa
:1049cc0000407800614060000080fb0061006000e6
:1049dc004e00dd0002738000f1ff2b0081006100ae
:1049ec000100700000738800007380004e00de0030
:1049fc00614060000080fb00610060004c00dd0045
:104a0c0002738000f1ff2e00810061000100700034
:104a1c0000738800007380004c00de006140600071
:104a2c000080fb00610060004d00dd00027380001f
:104a3c00f1ff2d00810061000100700000738800ff
:104a4c00007380004d00de00614060000080fb00c0
:104a5c004f00dd0002738000f1ff27008100610030
:104a6c000100700000738800662ea800307380006f
:104a7c000000d100614060000080fb00610060001c
:104a8c0032738000e1ff2f00810061000100700093
:104a9c003073880030738000004078006140600003
:104aac000080fb00610060004e00dd00327380006e
:104abc00f1ff2b0081006100010070003073880051
:104acc00307380004e00de00614060000080fb000f
:104adc00610060004c00dd0032738000f1ff2e009d
:104aec008100610001007000307388003073800019
:104afc004c00de00614060000080fb006100600043
:104b0c004d00dd0032738000f1ff2d00810061004b
:104b1c000100700030738800307380004d00de009f
:104b2c00614060000080fb004f00dd0032738000ac
:104b3c00f1ff2700810061000100700030738800d4
:104b4c00642ea800207380000000d100614060003a
:104b5c000080fb006100600022738000e1ff2f00e9
:104b6c0081006100010070002073880020738000b8
:104b7c0000407800614060000080fb006100600034
:104b8c004e00dd0022738000f1ff2b0081006100dc
:104b9c000100700020738800207380004e00de003e
:104bac00614060000080fb00610060004c00dd0093
:104bbc0022738000f1ff2e00810061000100700063
:104bcc0020738800207380004c00de006140600080
:104bdc000080fb00610060004d00dd00227380004e
:104bec00f1ff2d008100610001007000207388002e
:104bfc00207380004d00de00614060000080fb00ef
:104c0c004f00dd0022738000f1ff2700810061005e
:104c1c00010070002073880000aea800008ea80070
:104c2c00006ea800004ea8000aaea8000a8ea800cc
:104c3c000a6ea8000a4ea800116ea800114ea8001a
:104c4c00112ea800110ea8001b6ea8001b4ea80068
:104c5c001b2ea8001b0ea800502ea800500ea8005a
:104c6c0000eea80000cea8005a2ea8005a0ea800ec
:104c7c000aeea8000acea80030eea90080718000d0
:104c8c004700de00614060000080fb0061006000b6
:104c9c004a00dd0002708000f1bf2f00810061002e
:104cac000100700000708800007080004a00de0077
:104cbc00614060000080fb00610060004e00dd0080
:104ccc0002708000f1ff2b00810061000100700078
:104cdc000070880034eea800a07180004700de0050
:104cec00614060000080fb00610060004a00dd0054
:104cfc0022708000f1bf2f00810061000100700064
:104d0c0020708800207080004a00de006140600046
:104d1c000080fb00610060004e00dd00227080000e
:104d2c00f1ff2b00810061000100700020708800f1
:104d3c00568ea90056aea9002268a8000268a900e8
:104d4c0030cea900302ea90031aea800506ea900bb
:104d5c00508ea90050aea80011348000f00f2c002a
:104d6c00808060000030200001007000103488004a
:104d7c003136800000f82f00808060005004200045
:104d8c0001007000303688003134800000fc2f00a8
:104d9c00008060005000b300303488000134800083
:104dac00f00f2c008080600000602000010070007b
:104dbc00003488004136800000f82f0080806000ad
:104dcc00d00420000100700040368800813480003f
:104ddc00f00f2c008080600000f0210001007000ba
:104dec00803488009134800000fc2f0080806000ab
:104dfc00000220000100700090348800d136800041
:104e0c0000f82f0080806000500620000100700028
:104e1c00d03688000080fa00000006000000fa007e
:104e2c002fe1a9002e21a9002ec1a9007009800034
:104e3c000040a0000050a000700988002621ef005f
:104e4c002011200050098800c04280000000a00002
:104e5c000010a1000020a100c04288000608a90093
:104e6c002608a8002fe1a8001821ef0000098000f7
:104e7c000040a0000050a0000009880000a62e00f1
:104e8c00e00888000388a9002388a90021e1a80074
:104e9c0013e1a900900880000040a0000050a00081
:104eac00900888000a21ef0000a62e0070088800e8
:104ebc000108a9002108a90013e1a8000080fa004c
:104ecc00000006000000fa001019800000d0a100bc
:104edc0000e0a10000f0a10010198800001980006a
:104eec000080a1000090a100001988002083a80078
:104efc00001980000050a1000060a1000070a0000b
:104f0c00001988002043a8002143a8002063a900b1
:104f1c002223a9002343a800101980000080a100bf
:104f2c000090a1001019880025e3a90000ccb30063
:104f3c0024e3b7003303a8004119800000fe2f00c2
:104f4c00008060004019880028e3a9002603a9000e
:104f5c00301980000010a1000020a1003019880039
:104f6c003023ef002e23ef0031e3a80031c3a8005b
:104f7c0031a3a8002ee3a8002183a90011198000f9
:104f8c0030f82f00008060000040a000101988004d
:104f9c00901980000000a1000010a0000020a000cb
:104fac009019880001a8a90021a8a90021e3a80054
:104fbc000080fa00000006000200fa00000f7800e2
:104fcc001e007800608188000080fa000000060056
:104fdc003600f800809fbe00829fbe00849fbe00fa
:104fec00869fbe000000fa00608180000000010076
:104ffc000608a9000080fa004f03be004f02be0055
:10500c004f01be004f00be003600f9000040060004
:10501c000800fa00200798003107980010002000c3
:10502c0001002000008fbe001e0078008040780038
:10503c002e0090000040780000c0600061406000cd
:10504c000080fb0061006000a2718000e1ff2f0076
:10505c008100610001007000a07188001e00be007c
:10506c0000014000818148002e009000be0090009d
:10507c0002027800030178008001780001007800ba
:10508c0003026200000061008000eb00c000dd0044
:10509c00000020000001be006120b800000171007a
:1050ac00818171008300d1000280d3000040780020
:1050bc00614060000080fb00610060004b00dd007f
:1050cc00a2718000f17f2f0081006100010070004f
:1050dc00a07188001e00be004209dd00ce01de007a
:1050ec00830171004201dd002e009000be00900093
:1050fc00020278000301780080017800010078003a
:10510c0003026200000061008000eb00c000dd00c3
:10511c00000020000001be006120b80000017100f9
:10512c00818171004e1add004210de000000720019
:10513c00c218de0000407800614060000080fb0077
:10514c00610060004a00dd00a2718000f1bf2f00f9
:10515c008100610001007000a07188001e00be007b
:10516c004309dd00cd01de00830171004301dd0048
:10517c002e009000be00900002027800030178001f
:10518c0080017800010078000302620000006100d9
:10519c008000eb00c000dd00000020000001be001c
:1051ac006120b80000017100818171004d1add0091
:1051bc004310de0000007200c318de0000407800cf
:1051cc00614060000080fb00610060004900dd0070
:1051dc00a2718000f1df2f008100610001007000de
:1051ec00a07188001e00be004409dd00cc01de0069
:1051fc00830171004401dd002e009000be00900080
:10520c000202780003017800800178000100780028
:10521c0003026200000061008000eb00c000dd00b2
:10522c00000020000001be006120b80000017100e8
:10523c00818171004c1add004410de000000720008
:10524c00c418de0000407800614060000080fb0064
:10525c00610060004800dd00a2718000f1ef2f00ba
:10526c008100610001007000a07188001e00be006a
:10527c004509dd00cb01de00830171004501dd0035
:10528c002e009000be00900002027800030178000e
:10529c0080017800010078000302620000006100c8
:1052ac008000eb00c000dd00000020000001be000b
:1052bc006120b80000017100818171004b1add0082
:1052cc004510de0000007200c518de0000407800ba
:1052dc00614060000080fb004f00dd002270800008
:1052ec00f1ff270081006100010070002070880030
:1052fc001e00be004609dd00ca01de0083017100fc
:10530c004601dd002e009000be00900002027800e5
:10531c00030178008001780001007800030262002c
:10532c00000061008000eb00c000dd0000002000e8
:10533c000001be006120b800000171008181710084
:10534c004a1add004610de0000007200c618de00ae
:10535c0000407800614060000080fb00610060004c
:10536c0022708000e1ff2f008100610001007000bd
:10537c00207088001e00be004709dd00c901de0058
:10538c00830171004701dd002e009000be009000eb
:10539c000202780003017800800178000100780097
:1053ac0003026200000061008000eb00c000dd0021
:1053bc00000020000001be006120b8000001710057
:1053cc0081817100491add004710de000000720077
:1053dc00c718de0000407800614060000080fb00d0
:1053ec004f00dd00a2718000f1ff270081006100f9
:1053fc0001007000a07188001e00be004809dd008d
:10540c00c801de00830171004801dd002e00900010
:10541c00be00900002027800030178008001780041
:10542c000100780003026200000061008000eb00c4
:10543c00c000dd00000020000001be006120b800ab
:10544c000001710081817100481add004810de00f6
:10545c0000007200c818de00004078006140600057
:10546c000080fb00610060004e00dd00a271800036
:10547c00f1ff2b008100610001007000a071880019
:10548c001e00be004909dd00c701de00830171006a
:10549c004901dd002e009000be0090000202780051
:1054ac00030178008001780001007800030262009b
:1054bc00000061008000eb00c000dd000000200057
:1054cc000001be006120b8000001710081817100f3
:1054dc00471add004910de0000007200c918de001a
:1054ec0000407800614060000080fb0061006000bb
:1054fc004c00dd00a2728000f1ff2e0081006100e3
:10550c0001007000a07288001e00be004a09dd0078
:10551c00c601de00830171004a01dd002e009000ff
:10552c00be00900002027800030178008001780030
:10553c000100780003026200000061008000eb00b3
:10554c00c000dd00000020000001be006120b8009a
:10555c000001710081817100461add004a10de00e5
:10556c0000007200ca18de00004078006140600044
:10557c000080fb00610060004d00dd00a272800025
:10558c00f1ff2d008100610001007000a072880005
:10559c001e00be004b09dd00c501de008301710059
:1055ac004b01dd002e009000be009000020278003e
:1055bc00030178008001780001007800030262008a
:1055cc00000061008000eb00c000dd000000200046
:1055dc000001be006120b8000001710081817100e2
:1055ec00451add004b10de0000007200cb18de0007
:1055fc0000407800614060000080fb0061006000aa
:10560c000000400022708000d1ff2f00810061005b
:10561c0001007000207088001e00be004c09dd00e7
:10562c00c401de00830171004c01dd002e009000ee
:10563c00be0090000202780003017800800178001f
:10564c000100780003026200000061008000eb00a2
:10565c00c000dd00000020000001be006120b80089
:10566c000001710081817100441add004c10de00d4
:10567c0000007200cc18de00004078006140600031
:10568c000080fb004f00dd0022738000f1ff27003b
:10569c008100610001007000207388001e00be00b4
:1056ac004d09dd00c301de00830171004d01dd00f9
:1056bc002e009000be0090000202780003017800da
:1056cc008001780001007800030262000000610094
:1056dc008000eb00c000dd00000020000001be00d7
:1056ec006120b8000001710081817100431add0056
