:020000040000fa
:080000000002040000000000f2
:020000040000fa
:10000800d6020000d6020000d6020000d602000088
:10001800d6020000d6020000d6020000d602000078
:10002800d6020000d6020000d6020000d602000068
:10003800d8370000d6020000d6020000d602000021
:10004800d6020000d6020000d6020000d602000048
:10005800d6020000d6020000e4370000d6020000f5
:10006800d6020000d6020000d6020000a827000031
:10007800d6020000d6020000d6020000d602000018
:100088004a380000d6020000d6020000d60200005e
:10009800d6020000d6020000d6020000d6020000f8
:1000a800d6020000d6020000d6020000d6020000e8
:1000b80056380000d6020000d6020000d602000022
:1000c800d6020000d6020000d6020000d6020000c8
:1000d800d6020000d60200007e380000d6020000da
:1000e800e62e0000d6020000d6020000d60200006c
:1000f800d6020000d6020000d6020000d602000098
:10010800d6020000d6020000d6020000d602000087
:10011800d60200008a380000d6020000d60200008d
:10012800d6020000d6020000d6020000d602000067
:10013800b2380000d6020000d6020000d602000045
:10014800d6020000d6020000d6020000d602000047
:10015800d6020000d6020000d6020000d602000037
:10016800d6020000d6020000d6020000d602000027
:10017800d6020000d6020000d6020000d602000017
:10018800d6020000d6020000d6020000d602000007
:10019800d6020000d6020000d6020000d6020000f7
:1001a800d6020000d6020000d6020000d6020000e7
:1001b800d6020000d6020000d6020000d6020000d7
:1001c800d6020000d6020000d6020000d6020000c7
:1001d800d6020000d6020000d6020000d6020000b7
:1001e800d6020000d6020000d6020000d6020000a7
:1001f800d6020000d6020000d6020000d602000097
:10020800d6020000d6020000d6020000d602000086
:10021800d6020000d6020000d6020000d602000076
:10022800d6020000d6020000d6020000d602000066
:10023800d6020000d6020000d6020000d602000056
:10024800d6020000d6020000d6020000d602000046
:10025800d6020000d6020000d6020000d602000036
:020000040000fa
:100400000f6121000ef327000e018800000000009c
:10041000000020000000e000020032000001200087
:10042000200288000c000700808c230001002000bf
:100430000f000700000020000000e0000200320072
:100440000000020000000000442002000000000044
:100450000040da000000fe00000920000000e0007b
:1004600002003200002020009001880000000600f9
:10047000a1028800800078000000eb001a0037001d
:10048000e280400054a0b4009101ba00e280400034
:1004900054a0b4009102ba00e280400054a0b4001d
:1004a0000002eb00472bde00f507b200a601880032
:1004b000602ce10008003a000049eb000201e8006e
:1004c000020039003420ec0002f0a0008301e900b2
:1004d000f9ff3e00040037006128e100010032000e
:1004e0000082eb00040007001101ba000200e000e6
:1004f000e3ff3a000000060004d0a300e20f490029
:100500001c003900810278003549ba000201e80078
:10051000020039003420ec0002f0a0008301e90061
:100520000f0032002549ba000201e800020039003c
:100530003420ec0002f0a0008301e9000800320042
:100540000400e0000600320015c9ba000201e8000c
:10055000020039003420ec0002f0a0008301e90021
:100560008180e80054a0b4000300e000e2ff3a00fc
:10057000000006009102ba00055978008301e900e5
:10058000f7ff3200c82ade00055978008301e90030
:10059000f3ff32000400e000f1ff320011d9ba008d
:1005a000eeff370060270400000000000040da0082
:1005b0000000fe000a00fa00e20f500022003e0098
:1005c00074b08000e10f5200060032008723200043
:1005d000462320002423200005232000e08f530021
:1005e00004003a0087222000462220002422200016
:1005f00005222000000028001500600003003a00da
:10060000800b780007002800958a730005402000c1
:100610009482620001003a0014a0a00082027800d7
:1006200006003700940378000710b200fdff320087
:10063000b103fb00070b78008502e900e08f520050
:10064000f8ff3a0008003700340020001007980037
:1006500032079800040f7800210798000e007800f8
:10066000300a07003e019000020078000080fa0086
:10067000000006000000fa0006a2a9000682a800f9
:100680000080fa00000006000000fa0004002400c8
:100690000602ab00feff3a000642ab00fcff3a0048
:1006a0000662ab00faff3a000622ab00f8ff3a0000
:1006b0000682ab00f6ff3a00461080008602620018
:1006c000e08f5200f2ff3a000080fa0000000600be
:1006d0000000fa000662a8000662ab00feff3a00c6
:1006e00008c2a900001080000080fa000000060087
:1006f0000000fa000080fb00101088004410800009
:100700000408b20000c0eb000b003a000400240013
:100710004610800086026200e08f5200fcff3a0023
:10072000d9ff0700000028000802b600e00f5000c3
:1007300001003200e0cfb3000080fa0000000600a4
:100740000000fa0006a2a8000682a8000080fa00b5
:10075000000006000000fa000622a8000080fa004f
:10076000000006000000fa000602a8000080fa005f
:10077000000006000000fa000642a8000080fa000f
:10078000000006000000fa002148a90041e2a9008b
:100790000148a9000080fa00000006000000fa00ed
:1007a0002428a90061e2a9000428a9000080fa0019
:1007b000000006000000fa002b68a900a1e2a900d1
:1007c0000b68a9000080fa00000006000000fa0093
:1007d0001012880021128800021288000080fa009e
:1007e000000006000000fa001013880021138800a2
:1007f000021388000080fa00000006000000fa00e2
:100800001015880021158800021588000080fa0064
:10081000000006000000fa008411800066026200f9
:10082000e60f52000c003a00030037003322ab0001
:10083000feff3a00a5118800b0027800e08f520058
:10084000faff3a00070037003322ab00feff3a0000
:100850008502fb00a5118800b0427800e0cf52006d
:10086000f9ff3a000080fa000000060003f0a20041
:10087000889fbe008a9fbe008c1f7800c6000700bc
:10088000cd0033006450e1004f0032006420e100ed
:100890005200320003826c0007003b000905d000c3
:1008a0000306d000820f54000c065d0002003900e0
:1008b0000200320089017800030678008582550025
:1008c00004003d000003fd008103fd008502ea00f5
:1008d0008b854200840f720002003b006000100014
:1008e000e08018006011b8000005eb007a28e100f4
:1008f0000a00390006007800c75ddd00f707b20086
:10090000878075002d003700828171000a01780010
:10091000610560008180d1000080d3008502e9007c
:10092000f9ff3b00060440008784480002003b00ba
:1009300060041400e0841c000988a3000700320052
:100940008a81710082817100610164008904d10093
:100950000884d3008b05e800170037000978a3004e
:1009600013003a000b00e000130034008b05e9008f
:100970000804440089844c000a4474000978a300e8
:100980000d003a000b00e000070034008b05e90081
:100990000804440089844c0001003a000b00200048
:1009a0000978a300f7ff32000001eb0002003700d6
:1009b000828171000a017800510007000cf0a70045
:1009c00001f0a000850037006420e10002003a0039
:1009d000838f6c00850033000801be000200be005a
:1009e0007e003700889fbe008a9fbe008c1f780063
:1009f000690007007000330003866c006450e1005a
:100a00002e0032006420e100330032006150e1002a
:100a10002f0032006120e100310032008585550051
:100a2000eb07b00009002000080420000500370093
:100a30000804440089844c000a0031000603430086
:100a400087834b000001530081815b00f8ff330076
:100a50000203be000800a0000804440089844c0082
:100a6000f6ff3900c639dd00830173000100320052
:100a7000130020008904d1000884d3000998a30042
:100a8000050032000800a7000300a0008904d1007f
:100a90000884d3008b05e8008904d1000884d300c2
:100aa0000001eb000281d2001500070001f0a10057
:100ab0000cf0a70001f0a000480037006420e1001e
:100ac0004a0032000801be000200be00f7ff3700f6
:100ad0006120e100450032006000b800f3ff3700fc
:100ae0000000200001f82700f0ff37004f89de00ea
:100af00082017800520037006011b80060003700b2
:100b000081002000618055000b003d000b0020009b
:100b100061fe2f000100e1001d00340082817100a0
:100b2000610164008904d1000884d3000000e8005a
:100b3000faff3a00710020006100640003007000b9
:100b4000020060000900320061044400e0844c00af
:100b50000988a500050032008b05e8006808e1005f
:100b600002003a008904d1000884d300f20f20006b
:100b70000258e10005003d00c75ddd00f907b20045
:100b80008980750008007800000006000bf8270037
:100b90008b007800000005000004be00670007001d
:100ba0000003be000405be000200be006300070093
:100bb000844f7500000006000200be006450e10092
:100bc000050036006420e100020036000968a30039
:100bd00001003a000800be000160a0004f06780046
:100be0004f05be004f04be0000000600f0ff2f00be
:100bf000f1ff2700f9ff3700811f78000100e000b6
:100c000002003d0060001000e08018000300e000da
:100c100002003d0060011100e0811900050007009d
:100c20004f00e00002003b0060001000e080180070
:100c300000000600560007000400be000000060089
:100c4000881f7800030478000300e00007003d00df
:100c500060001000e080180060011900e0811900b8
:100c600002003b0001f02d000300370004000700e4
:100c700008f0a70001f0a0004f0478000000060073
:100c8000889fbe008a9fbe0000827000040271002f
:100c900004827100260032000004be000200be0083
:100ca0006011b8006b092000950220000182cf007e
:100cb0000a0039000541b1000082cf000700390069
:100cc0000541b1000982cf00040039000541b1009f
:100cd0000882cf00010039000541b10005425200f1
:100ce000120032000a003b00828171006101640041
:100cf0008100d1000080d3008984d3000884d30010
:100d00008b05e8000442e800f7ff3a0007003700cf
:100d10000804440089844c00000048008180480099
:100d20008b05e9000442e900f9ff3a0074ff07006f
:100d30004f05be004f04be0000000600c70ade00db
:100d4000f107b200f50fb20008003200e1cf420017
:100d5000020032000170a00024000500810f700025
:100d6000010032000408050044000500810f7000f6
:100d700002003a00140005008502e900000040006e
:100d800081c04800fcff3b000170a000240005006a
:100d90006022b800060220000000d0008180d2004e
:100da0000482d2008582d2000000a000020252001c
:100db00083825a00030031000202420083824a000b
:100dc0000000a1000603e900f3ff3a00000006005e
:100dd00006c2b3000000fa000002780004007800a8
:100de000b042780086cf5200fbff3200e9cf5200bc
:100df000f9ff3200d6c2b30086cf520003003a009a
:100e00000002780016c0b300050037000043eb0075
:100e1000b7c2b30087cf520001003a000002780049
:100e20000000eb0002003700ea00b9000080420039
:100e3000b402fb000503b100e98f5200faff36004f
:100e4000e04f5300010032000000ea000080fa0089
:100e5000000006000000fa000002780002003700df
:100e6000315a78000201e900e00f5100fcff3a001e
:100e70000080fa00000006000000fa00000278007e
:100e800002003700015a78000201e900e00f51002a
:100e9000fcff3a000080fa00000006000000fa00a3
:100ea0000002780084027800050278000043eb001d
:100eb000b44f1300fbff3a0031427800845a7800a7
:100ec000e04f5200fcff3a000080fa0000000600ec
:100ed0000000fa00000278000400780000027800a8
:100ee000b442780081cf520003003200e0cf5200bc
:100ef000f9ff3a000000eb000080fa000000060055
:100f00000000fa00000278008042eb00b4cf12002b
:100f1000fdff3a000080ea000080fa000000420075
:100f2000000006000000fa00889fbe000004be001a
:100f3000e00f540003003a0068b08000e00f540056
:100f4000150032000800be00320007000004440013
:100f50000042eb00984f120003003a000004eb003f
:100f600068b088000c0037000800be000e000700c3
:100f7000000044000042eb0060b08800904f120077
:100f8000030032000058eb0060b088000200370018
:100f90000002eb0064b08800080078004f04be0037
:100fa0000080fa00000006000000fa00889fbe00e2
:100fb0006044b8008a9fbe00810578008c9fbe0007
:100fc0000005eb006106b800020037006104440030
:100fd000e0844c000c02450094407800e0cf5000c3
:100fe000060032008100fb000b0078000a05e800d3
:100ff000b7ff0700e00f5000f4ff32004f06be00bd
:101000000800be004f05be004f04be000080fa007d
:10101000000006000000fa00889fbe006044b8008f
:101020008a9fbe00810578008c9fbe000005eb0002
:101030006106b8000200370061044400e0844c00ff
:101040000c02450094407800e0cf500006003200ca
:101050008100fb000b0078000a05e8009cff0700f8
:10106000e00f5000f4ff3a004f06be000800be003b
:101070004f05be004f04be000080fa0000000600cd
:101080000c00fa00889fbe00f4ff270000047800df
:10109000540798008004eb00080f780019079800a7
:1010a00028079800240c2000680157003407980096
:1010b000ceb897000e007800b70007001e02780037
:1010c000094a78001e0014004f04be000080fa0098
:1010d00000000600d4c6b3000800fa00889fbe00d6
:1010e0000084fb008a9fbe00844f50002c00360015
:1010f000694621004b062000110009000b84d8002e
:10110000720040004300dd0000804400810578004b
:101110006022b8000600200007fe2300aa0020007d
:101120005001be004000be00450907000002be009d
:101130000203be00110009008a85d800049fbe008a
:101140000697be0080057800e9854500c35ddd0097
:101150008b8544003e00be002e01be003b02be0057
:101160002b03be00360907000002be000203be00ca
:10117000110009000a84d800049fbe000697be0033
:10118000010478004344dd00888444003e00be0032
:101190002e01be003902be002903be001d0037002b
:1011a000ea4f500013003600aa00200069462100d3
:1011b000110009000a84d800010578006904400084
:1011c0004355dd004344dd00088444008a84440024
:1011d0006022b8000600200007fe23003800be0091
:1011e0002801be00160907003902be002903be000f
:1011f00008003700644621004344dd000804420033
:101200006022b8000600200007fe23003800be0060
:101210002801be000a0907004f05be004f04be00aa
:101220000080fa0000000600d4c6b3000800fa00ef
:10123000889fbe008a9fbe00e04f500022003d0004
:101240000040ea000004fb00844f50000a00340014
:1012500044062000a9002000110009000404d80061
:101260006a462100110009008900d800e900400009
:10127000c308dd0020003700ea4f50000f003400a3
:10128000a4002000110009000404d80064462100d5
:10129000690040004300dd0000004200430cdd0017
:1012a000080242005001be004000be005403be00d0
:1012b0004402be00e2080700330037004344dd006b
:1012c000644621002d0037000004fb00844f5000cd
:1012d0001f00340044062000a9002000110009006e
:1012e0000404d8006a3b2100110009008900d800dd
:1012f000e9004000c308dd00810045008b092000a3
:101300008a8545003102be002103be003b00be00bd
:101310002b01be00ca0807000002be000203be0087
:10132000110009000904d800049fbe000697be0002
:10133000010478004344dd00080545003e00be007e
:101340002e01be003a02be002a03be00d9ff3700bc
:10135000ea4f500007003400a400200011000900eb
:101360000404d800643b2100690040004300dd0014
:10137000c9ff37004344dd00643b210008044200fc
:101380003800be002801be004f05be004f04be005d
:101390000080fa00000006005a00fa00889fbe0094
:1013a000111798008a9fbe00721798008c9fbe008c
:1013b000000678006000b8006011b800201798009f
:1013c0003117980042179800531798008000eb00df
:1013d00041279800420637001e11900054c2b30006
:1013e0000201e80012179800844f500006003a00ee
:1013f000820378008002eb0000c3b30001c2b30097
:10140000b2c2b300100037003c0290000404b200e6
:10141000040032001c027800004a7800040ee80044
:10142000050037000000fb008c007800370607003d
:10143000e10f40002a063200ce2190008301e8002f
:10144000432798002606370007027800d3c2b3006e
:1014500037437800834f53000900320005003c00f9
:10146000814f530008003200824f53000c003a00b5
:1014700007003700804f530009003a00060037008c
:101480000530a000f0ff37000500a000eeff370098
:101490000510a000ecff37000520a000eaff370090
:1014a000e2836200010032000500a100e8836200cf
:1014b000010032000520a1008603fb000703b100f4
:1014c000e98f53000d003e00040378000700200060
:1014d000ea3ab900b603fb000703b1001600fb00af
:1014e000848343000003b10006027800e90f500036
:1014f000f7ff3600072798000a0037008003eb004b
:1015000007279800a7c2b300874f530005003a0091
:101510007e1090000402e800c00078007017980068
:1015200001279800e6c2b300944f13001b003a0055
:1015300005e0a00055279800a5c2b300d4cf120043
:10154000040032000001eb0084027800820378007e
:101550000b003700fe1190000402e800c30278007f
:1015600073179800451f980004037800c5c6b300a0
:101570005e2090000e003700ea3ab9008403430071
:10158000050278003503fb000603b100e90f5300a4
:10159000f9ff3600471f9800f3ff370005c0a00091
:1015a0000003eb0055279800461f9800eeff370018
:1015b000860378003742780007037800854f520091
:1015c0002e0032005027980017179800c5c6b300a8
:1015d000854f520014003c00e8c25200854f520073
:1015e0002400320009003c00ecc25200854f52003a
:1015f00033003200ebc24200854f5200b30032008c
:10160000e04f5200bb053200d100370065c6b30081
:10161000854f520020003200e3c24200854f520045
:10162000cb003a001300370035c7b300854f520096
:101630002a00320007003c00e4c25200854f5200ed
:101640001a0032008542e800854f5200c0003a007f
:101650001b00370055c7b300854f5200c000320051
:10166000e3c24200854f5200b9003a00044f7800af
:1016700017003700044f7800bd003700f00360000a
:101680000401200001003200040028000002720062
:1016900004007800c6ff3700de239000044f780076
:1016a00007a0a00057279800b10037005e249000e3
:1016b000044f78000860a00058279800ac0037005d
:1016c0005e209000044f78000050a0005027980042
:1016d000de2090000170a000a40037007e11900071
:1016e000044f7800420278007217980004047800d2
:1016f000e00f520001003a008853210008037800ef
:101700000002eb00010037000402e80084024300fd
:101710008041eb0095cf1100fbff3a008404780074
:101720004e1a9000e00f520003003200890f520061
:1017300001003100840478008006eb008e229000c6
:10174000898f520001003600898652005e23900086
:10175000680363005627980036003a00481f980037
:10176000591f98006a1f98007b1f980004c2b3009d
:10177000ce24900010003700bc0290000504b20097
:10178000040032009c027800844a7800050ee800cc
:1017900007003700442f98008c00780000022000da
:1017a0005a0507004e2a9000e10f40000100320068
:1017b0008904e8008d06e900e08f5600eeff3a004c
:1017c000492798008086eb004e1c9000de1c90009c
:1017d0006e1d9000fe1d9000160037003c02900028
:1017e0000404b20009003200080278001c037800eb
:1017f000b4427800054b780004047800060ee80037
:10180000e0cf520008003a000a00370008027800d2
:101810008c0078003400fb00040478003b050700ce
:10182000e10f400003003200ce2090008100e8006c
:1018300041279800090278008404e900e00f520073
:10184000e6ff3a005e219000e00f510024053200cf
:1018500058279800692798007a2798000b2f98003e
:1018600004c2b300ce24900010003700bc029000e8
:101870000504b200040032009c027800844a78001b
:10188000050ee80007003700442f98008c00780010
:10189000000220001d0507004e2a9000e10f4000c5
:1018a000010032008904e8008d06e900e08f56004f
:1018b000eeff3a00492798005e249000ee24900045
:1018c0007e2590008e2d900005053700fe109000bb
:1018d0005e23900041027800f002630071179800c7
:1018e00004007800cf80de000101780082017800da
:1018f000001f9800111f9800221f9800331f9800a6
:101900004800de00480add0000007200004f780049
:10191000e08f520009003200e04f50000700320013
:10192000e14f4000050032008e7390001047980090
:101930002747980029002000030037000e70900010
:1019400019002000104798000e04e80074ff3700cb
:10195000044f78000e0478001900200070ff370053
:10196000044f7800de209000010cb300512798004e
:10197000047020005e219000040261009102320098
:101980000400210004026100020032006300200014
:10199000431f9800de22900070826200090032002e
:1019a0007e1290004401be004400be0074179800ef
:1019b000001f9800111f9800221f9800331f9800e5
:1019c0000a003700fe1290004500be00751798000f
:1019d000830607000002be000203be00041f980039
:1019e000151f9800261f9800371f98006022b80026
:1019f0006033b8000e1890009e1890002e199000c9
:101a0000be199000c8050700e00f50000c003d0013
:101a10000e1890009e1890002e199000be1990008c
:101a200003f0a200001f9800111f9800221f9800c9
:101a3000331f9800de2090003100b300512798003a
:101a40000002eb000e1890009e1890002e199000d6
:101a5000be199000240798006022b8006033b800d7
:101a600015060700e00f5000330032006402470003
:101a70000e1890009e1890002e199000be1990002c
:101a8000d20607002e009000a40020000000e9000c
:101a9000e300b900110009000400d80020079800f5
:101aa000e00f500002003d000000e9002007980010
:101ab0002e0490000840ea00dbfd07000e1a90009b
:101ac0009e1a90002e1b9000be1b9000dc060700a3
:101ad0000002be000203be002417980035179800cc
:101ae00046179800571798006022b800060020009b
:101af00007ff23008c050700e00f500002003d00a7
:101b00000804e9000b0037006022b800060020003e
:101b1000470224002e109000be1090004e1190003d
:101b2000de11900085050700e00f5000020035002f
:101b30000804e80028079800ce1a9000f88f520099
:101b40000f003c000540780062fd07000002be0067
:101b50000203be000e1890009e1890002e199000ef
:101b6000be199000f30407000002be000203be008d
:101b7000041f9800151f9800261f9800371f980013
:101b80002e049000e90f540015003c006022b800bc
:101b90006033b8000e1890009e1890002e19900027
:101ba000be199000c4050700e00f5000320032005b
:101bb0000e1890009e1890002e199000be199000eb
:101bc00026060700e00f5000e08f5800e00f590094
:101bd000e08f590028003a00e10f5400260034003d
:101be0000400200005002e00b6e0220017012400aa
:101bf0002e109000be1090004e119000de1190004b
:101c000049050700e00f500002003d007304540036
:101c10000100370072045400280798004e409000dd
:101c200081fd07000002be000203be000e189000f6
:101c30009e1890002e199000be199000241798004d
:101c40003517980046179800571798004005070069
:101c5000020607000205be000004be006000b800d6
:101c60006011b800001f9800111f9800221f9800f3
:101c7000331f9800170037000e1890009e18900030
:101c80002e199000be199000f40507000205be0051
:101c90000004be00220607000002be000203be00d0
:101ca0000e1890009e1890002e199000be199000fa
:101cb000d80607000002be000203be00041f980001
:101cc000151f9800261f9800371f98000002eb0090
:101cd000240798008154210010c0b3000800370089
:101ce0003102be003103be000440e10005c8e1003e
:101cf00006d0e10007d8e100030039000040e80009
:101d0000f44f5000f6ff3a008e229000004f78000a
:101d10002e0290004e1b9000048252000000fb0037
:101d2000060252000000520000279800e00f530006
:101d3000020032000000e90000279800de23900036
:101d400063826300030032000e2090000000e9006f
:101d500000279800de20900064826000510032006d
:101d600062826000e1826000e00f520017003200e2
:101d70003c0290000404b200080032001c0378000a
:101d8000b4c2b300e08f52000100320004c2e80088
:101d9000044b7800060ee80008003700b00220006f
:101da000e08f5200010032000080e8008c007800d3
:101db000d6030700e10f4000300032004e219000b2
:101dc0000201e800422798002c003700e08f520003
:101dd0002a0032003c0290000404b20005003200e8
:101de0009c02780004c2b300844a7800050ee80023
:101df000050037008c00780000022000c3030700b4
:101e0000e10f40001d003200ce2190008301e80068
:101e100043279800190037003c0090000004b200ee
:101e2000040032001c0078000d487800000ee80025
:101e30000d003700442f9800352f9800162f98007a
:101e4000272f98008c00780000032000af030700c4
:101e50004e2a9000be2a90001e2b9000ae2b9000c0
:101e6000e10f4000030032004e2490000804e80017
:101e7000482798008904e900040037000802be00e2
:101e80000a03be008e2490000dc3b300e08f5400ff
:101e9000e1ff3c00092798000605be000404be00cf
:101ea000800037005e2090006802600023003a0046
:101eb000190037003c0090000004b200040032001a
:101ec0001c0078000d487800000ee8000d00370077
:101ed000442f9800352f9800162f9800272f980030
:101ee0008c00780000022000880307004e2a900032
:101ef000be2a90001e2b9000ae2b9000e10f4000f8
:101f000003003200ce2090008100e80041279800b5
:101f10008904e900040037000802be000a03be007d
:101f20008e2490000dc2b300e08f5400e1ff3c000e
:101f3000092798000605be000404be005e2190003b
:101f400062026100e1026100e00f520017003200fe
:101f50003c0290000404b200080032001c03780028
:101f6000b4c2b300e08f52000100320004c2e800a6
:101f7000044b7800060ee80008003700b00220008d
:101f8000e08f5200010032000080e8008c007800f1
:101f90005e030700e10f400042003200ce219000b6
:101fa0008301e800432798003e003700e08f52008d
:101fb0003c0032003c0290000404b20005003200f4
:101fc0009c02780004c2b300844a7800050ee80041
:101fd000050037008c007800000220004b0307004a
:101fe000e10f40002f0032004e2290000402e80072
:101ff000442798002b0037003c0290008502fb002c
:102000000404b2001100320006542100c32add008e
:10201000850243009c0678005503be004502be00c1
:102020000800be000a01be00a1060700a4002000af
:10203000050020006033b800a606070007c3b30000
:10204000874e40000d0ee8001300370000542100b9
:10205000c32add00850240000800be000a01be0060
:102060005503be004502be0091060700a4002000f3
:10207000050020006033b800960607008c00780049
:102080000403200000024200040078001f03070040
:10209000e10f400003003200ce2090008100e800f4
:1020a000412798001e4278008442e900054f7800dd
:1020b000e04f5200d0ff3a00110037003c02900080
:1020c0000404b200040032001c027800084a7800c0
:1020d000040ee800050037008c00780000032000a3
:1020e0000a030700e10f4000010032008904e80004
:1020f0002e0290000402e900240798000200370035
:10210000ce24900008c3b3002e029000e00f5200ce
:10211000eaff3c00492798004e199000f20f510049
:102120000300340024c1b300044f780002003700dc
:102130008e799000034f78004e1b90009e427800ed
:102140000502fb0004025300441f9800e0cf520038
:10215000100032003c0290000404b200050032007e
:102160001c027800e5c2b300054a7800040ee800be
:10217000050037008c007800e0022000e302070031
:10218000e10f400003003200ce2390008703e800f7
:10219000472798001e40780023fc07000002be007d
:1021a0000203be000e1890009e1890002e19900099
:1021b000be19900022050700a8040700340037006c
:1021c0003c0290008502fb000404b20011003200c2
:1021d00000542100c32add00850240009c067800df
:1021e0005503be004502be000800be000a01be0045
:1021f0002f060700a4002000050020006033b8006f
:102200003406070004c3b300844e40000d0ee800fe
:102210001300370006542100c32add008502430065
:102220000800be000a01be005503be004502be0004
:102230001f060700a4002000050020006033b8003e
:10224000240607008c0078000403200000024200ee
:1022500004007800ad020700e10f400003003200e7
:10226000ce2390008703e800472798000054210000
:102270001e02fb004322dd00040240000800be00f5
:102280000a01be005403be004402be00110607004e
:102290001e4278000205be000004be008442e90030
:1022a000054f7800e04f5200c5ff3a001900370093
:1022b0003c0090000004b200040032001c007800d2
:1022c0000d487800000ee8000d003700442f9800fc
:1022d000352f9800162f9800272f98008c00780033
:1022e00000032000890207004e2a9000be2a9000b9
:1022f0001e2b9000ae2b9000e10f40000300320037
:10230000ce2090008100e800412798008904e90070
:1023100004003700ce1c90000dc3b3000203be00c2
:102320000002be00e08f5400e1ff3a000605be0047
:102330000404be005e219000680261006802320061
:102340008e219000e08f5100650234000802be002b
:102350000a03be000dc2b300830478003c00900065
:102360000004b200040032001c0078000d48780020
:10237000000ee8000d003700442f9800352f98001c
:10238000162f9800272f98008c007800000220005c
:102390005e0207004e2a9000be2a90001e2b90007d
:1023a000ae2b9000e10f4000030032004e2490005d
:1023b0000804e800482798008904e900e7ff3a008c
:1023c00045023700de229000050cb2002e003a00d4
:1023d0005e209000e00f500005003d00fe109000d0
:1023e0004105be004104be00711798001700370078
:1023f0005e219000700261000e0032007e1390009a
:102400004602be00140f9800250f9800761798001a
:10241000160290004fa2de00340f9800440f98007f
:102420001e0c9000ae0c90003e0d9000ce0d900062
:10243000060037007e109000400478007017980066
:10244000cfc4de00090578008a057800e00f54004b
:10245000e08f5c00e00f5d00e08f5d0027003d0035
:10246000de2090006022b8006033b8003100b30075
:102470000804520089845a000a055b008b855b00c2
:10248000512798001d0037005e219000e00f510099
:1024900005003d00fe1190004305be004304be0050
:1024a00073179800150037005e239000f002630058
:1024b0000c0032007e1190004200be0074079800ac
:1024c0005007980061079800040f98007217980051
:1024d0005e049000ee0490007e0590008e0d90004a
:1024e000060037007e1290004404780074179800ac
:1024f000090020000a0020000b002000ce1a9000e6
:10250000e08f520009003a0016002000461f980094
:10251000e00f5400e08f5c00e00f5d00e08f5d0095
:10252000020032008003eb00471f98005e209000fd
:1025300004042000000cb200001f9800840f50001b
:102540002c00320003003c00e00f50000800320075
:102550003c003700040820008e189000848f500043
:1025600010003200040c2000848f500035003a0027
:102570008554210014c0b3003500be003501be00f3
:102580000040e10001c8e10002d0e10003d8e10011
:102590002b0039000442e800f44f5200f6ff3a00e5
:1025a0002700370014c0b300000120000100200004
:1025b0006011b8000040e10001c8e10002d0e10074
:1025c00003d8e1001e003900450020000000d000c3
:1025d0008180d2000281d2008381d2008502e9008d
:1025e000faff3a000442e800f04f5200f1ff3a00cf
:1025f0001300370014c0b300800020000100200049
:102600006011b8000040e10001c8e10002d0e10023
:1026100003d8e1000a003900360020000000d00095
:102620008180d2000281d2008381d2000603e900ba
:10263000faff3a000442e800f54f5200f1ff3a0079
:10264000044f78001e02fb00ce1b9000870f520043
:1026500002003d00074f7800040037004e1890003c
:10266000840f500001003d00441f98008e20900010
:10267000e08f5000050032005e219000630261008f
:10268000020032008100e9000127980004002400c4
:10269000de21900004826100090032000e229000c9
:1026a000ce1a9000850f520003003400050252003c
:1026b00004279800020037000003eb00062798006b
:1026c0008003eb001e02fb00671798000e209000ad
:1026d000840f500002003400040250006417980078
:1026e000de2090006482600051003200e2826000cf
:1026f00061826000e08f520017003200bc0290003f
:102700000504b200080032001c037800b5c2b30013
:10271000e00f52000100320085c2e800054b78004e
:10272000060ee80008003700b0022000e00f52005b
:10273000010032000080e8008c007800730107007f
:10274000e10f4000160032004e2190000201e80027
:102750004227980012003700e00f520010003200ac
:102760003c0290000404b200050032001c02780014
:1027700005c2b300054a7800040ee80005003700e2
:102780008c0078000002200060010700e10f40008b
:1027900003003200ce2190008301e8004327980017
:1027a0006e129000e00f5200750032000802be0069
:1027b0000a03be00ee1490000dc3b3003c0090006d
:1027c0000004b200040032001c0078000d487800bc
:1027d000000ee8000d003700442f9800352f9800b8
:1027e000162f9800272f98008c00780000032000f7
:1027f000460107004e2a9000be2a90001e2b900032
:10280000ae2b9000e10f4000030032004e249000f8
:102810000804e800482798008904e900e7ff3a0027
:10282000691798000605be000404be005400370076
:102830006e109000e00f500023003200de20900068
:102840006882600020003a000802be000a03be0051
:102850000dc2b300800478003c0090000004b20078
:10286000040032001c0078000d487800000ee800db
:102870000d003700442f9800352f9800162f980030
:10288000272f98008c007800000220001f0107000d
:102890004e2a9000be2a90001e2b9000ae2b900076
:1028a000e10f4000030032004e2190000201e800d9
:1028b000422798008904e900e7ff3a006917980069
:1028c0000605be000404be00de219000e282610025
:1028d00061826100e08f520017003200bc0290005c
:1028e0000504b200080032001c037800b5c2b30032
:1028f000e00f52000100320085c2e800054b78006d
:10290000060ee80008003700b0022000e00f520079
:10291000010032000080e8008c007800fb00070016
:10292000e10f4000160032004e2290000402e80041
:102930004427980012003700e00f520010003200c8
:102940003c0290000404b200050032001c02780032
:1029500005c2b300054a7800040ee8000500370000
:102960008c00780000022000e8000700e10f400022
:1029700003003200ce2290008502e800452798002f
:102980004e1b9000045421008602e900de239000d3
:10299000c32add00f08363005e209000848642003d
:1029a0000002b200470798003007980008279800f7
:1029b000192798002a2798003b2798009c00370089
:1029c000ce1a90000e1b90008502e900070420003b
:1029d000451f9800870f53007100320003003c0030
:1029e000e00f5300080032007e003700040820008a
:1029f0000e1c9000840f540053003200040c200081
:102a0000840f540077003a005e209000e00f5000e1
:102a10001e003d003d04be002d05be000e209000ae
:102a20009e2090002e219000be2190000802be0042
:102a30000a03be001e0407000802be000a03be000f
:102a4000004f78000000fb00cf80de00010178001d
:102a500082017800870407000e2290009e229000d9
:102a60002e239000be2390000002520081825a0063
:102a700002035b0083835b000427980015279800fe
:102a800026279800372798002c003700ce029000a8
:102a9000e08f5200210032000e2290009e22900012
:102aa0003d04be002d05be000400be000801be00ae
:102ab000442f9800352f9800b5f807000801be0094
:102ac000004f78000004eb000000fb00cf80de0028
:102ad000520307004e2a9000be2a90000817980063
:102ae0000003520081835a00560f9800670f980028
:102af0008003eb00770f98005e089000ee089000ce
:102b00007e0990008e1190000027980011279800f0
:102b10002227980033279800080037001d0278000c
:102b20000e219000110009000481d800a4002000ab
:102b3000110009000480d800014f780003c3b300de
:102b40001ecf41002700370074522100be029000c2
:102b5000e08f520001003200645121004e1b9000b2
:102b60000e2090009e2090002e219000be2190000b
:102b7000c232dd008502e900050033008301d10087
:102b80000281d3008180d3000080d300f9ff370099
:102b90006f00600000004200104f78001100370005
:102ba000ce1b90000e2090009e2090002e219000c1
:102bb000be219000e33ab900040478000804e9005b
:102bc000050033008301d1000281d3008180d3004e
:102bd0000080d300f9ff37006742600000c3b300f4
:102be000004f42003c0290000404b2000700320093
:102bf0009c0278001e427800844a7800050ee800a6
:102c0000e04f520006003a00080037001e00fb00ab
:102c10008c0078003d000700e10f40000300320007
:102c2000ce2090008100e80041279800e8865600f9
:102c30004e199000e00f510061ff3a00de21900034
:102c40000e2490009e2490002e259000be2590001a
:102c500068826100220032006e129000e00f520084
:102c60001f0034000802be000a03be00ee149000ec
:102c70000dc2b3003c0090000004b200040032001a
:102c80001c0078000d487800000ee8000d003700a9
:102c9000442f9800352f9800162f9800272f980062
:102ca0008c00780000022000180007004e2a9000d7
:102cb000be2a90001e2b9000ae2b9000e10f40002a
:102cc000030032004e2490000804e80048279800d2
:102cd0008904e900e7ff3a000605be000404be00cf
:102ce0009e10900011407800004f7800e04f500097
:102cf000b9f93a004f06be004e2090004f05be00c5
:102d00004f04be000080fa00000006000000fa0038
:102d1000889fbe00010478008084eb003802900098
:102d2000e20262003b003200040378009802900047
:102d30000620b20002003a00e08f520035003a004f
:102d40000490a0008004780034049800f90fb200c9
:102d5000e08f520002003a00a8029000050c7800b3
:102d6000ea8f540005003a000408b20003003a005c
:102d700088007800d0002000e4ff070018029000cf
:102d8000d8029000850f52000b0032000402e800c8
:102d900015c0b3001404980018027800094a78009e
:102da000040ce80064602100054a7800ea8f5400b2
:102db00018003a00050037000940780088007800c4
:102dc00018000700800478001200370038029000d5
:102dd0000410b2000f00320018019000a80090000b
:102de00048009000f3f5070018029000840f50008f
:102df00004003200380290000403b3003404980049
:102e00008084eb000002eb0014049800280290007c
:102e1000040c7800090078004f04be000080fa001e
:102e2000000006000200fa00889fbe00010478003e
:102e3000004f780038029000840278000504b20048
:102e4000020032000000fb0033003700e2026200a3
:102e500005003a000403b3001504980034049800f8
:102e60000080eb002c003700d8049000e08f540065
:102e700006003a00120020008e0078004800900002
:102e8000ccf507001904980022003700a802900032
:102e9000e08f520008003a00956021000430a00045
:102ea00025049800050c78003404980025002000c3
:102eb000550498001504980018019000a80090008f
:102ec00048009000bbf50700280290008082eb00cc
:102ed000150498001e4a7800040ce800a4c0b30052
:102ee0009e4f12000b003a00380290000410b2000e
:102ef0000800320018019000a800900048009000df
:102f0000acf507000002eb001404980028029000c2
:102f1000040c78001e00fb004f04be000080fa0085
:102f2000000006000000fa0000c0da000080fa008d
:102f3000000006002800fa00889fbe008a9fbe009d
:102f40008c9fbe0007067800878669000c003b0056
:102f5000030478008704780008f0a10009f0a100bc
:102f6000840f5000858f5800860f5900890f5c0030
:102f7000030033000cf0a20001003a000cf0a100a5
:102f8000fe0007006400e1005f00320078014700a6
:102f90006408e100610032006c014700748557004d
:102fa0003200be001201be003a04be001a05be0087
:102fb0001e039000be0a90008503530006003d00ea
:102fc0000004fd008104fd000205fd008305fd00f5
:102fd0008703ea00050378000df8a300040032001f
:102fe00060041400e0841c0060051d00e0851d00e5
:102ff0006022b8007d0320000d38e1008006eb0060
:103000000b0039004433dd00f300b200830173008c
:1030100039003700848272000d027800e1066400f6
:103020008b85d1000a85d3008984d3000884d3001e
:103030008703e900f7ff3b00080040008980480053
:103040000a0149008b81490004003b006000100028
:10305000e080180060011900e08119000358a30006
:10306000090032008d827200848272006102600069
:103070008301d1000281d3008180d3000080d3007e
:103080000603e8001b0037000348a30017003a00be
:103090000600e000170034000603e9000d00a3005d
:1030a00000004800818048000201490083814900f6
:1030b0000348a3000f003a000600e00009003400b6
:1030c0000603e90000004000818048000201490039
:1030d0008381490001003a000003eb000348a3008c
:1030e000f5ff32006022b8000200370084827200cf
:1030f000618266007500070003f0a1000cf0a700d4
:1031000003f0a000b1003700640147006408e1004b
:1031100002003a000df8a300a9003a003200be00f8
:103120001201be00a90037008f1fd100fc0207006a
:103130008f87e9000000e00000000600809feb00a0
:10314000f70207008f87e9000000e000000006009a
:103150002800fa00889fbe008a9fbe008c9fbe0098
:1031600003866b00850007006400e1004400320024
:103170006408e1004a0032006100e10046003200cc
:103180006108e10049003200ec0647006000b80029
:103190003d02be003d03be00f48657006011b8003a
:1031a0003d04be003d05be007d0320000b0037003e
:1031b0000000a0008d06e900130032000402420066
:1031c00085824a0006034b0087834b0000004000c5
:1031d00081804800020149008381490008025200b1
:1031e00089825a000a035b008b835b00f0ff3b007f
:1031f0000802420089824a000a034b008b834b007d
:103200008d06e900edff3a0084827200868272002a
:10321000f707b2008782720001003200150020001b
:103220001e0490003e0b900006035400e63fb000e1
:103230000368a300070032000000a7000500a000fb
:103240008301d1000281d3008180d3000080d300ac
:103250000603e8008301d1000281d3008180d300fe
:103260000080d3000002eb000482d20017000700a8
:1032700003f0a1000cf0a70003f0a00053003700fa
:10328000640247006408e1004d0032003400be00d3
:103290003401be00f6ff37006108e100480032004b
:1032a0006011b8006000b800f1ff370003ff27008d
:1032b00002002000fbff3700801feb009802070090
:1032c0008f87e9000000e0000000060018002000e1
:1032d00057002000080453000d003d0006002000a8
:1032e00097fc2f000740e1001e003400848272002a
:1032f000610260008301d1000281d3008180d3008c
:103300000080d3000804e800f8ff3a0047002000de
:103310006104600005047400040464000d003200c0
:1033200061004000e080480060014900e081490000
:1033300003b8a500070032000603e8006538e10085
:1033400004003a008301d1000281d3008180d300c0
:103350000080d300f87f20000830e1000300350032
:10336000080378006000b8006011b8004433dd0045
:10337000f300b200830173000000060068044700f8
:103380000294be000094be00fc0447008694be0078
:103390008494be0009007800aa02070008007800a3
:1033a000a802070099007800814f70000b003b00d5
:1033b0000800be00830207004f00b1000300370081
:1033c000f3ff2700f2ff2f006110b9004f06be0087
:1033d0004f05be004f04be000080fa00000006004a
:1033e0008103780055f607000001be006000b800b8
:1033f0000478a30013003a006220e10015003e00ab
:103400000d0039008301d1000281d3008180d300f7
:103410008301d1000281d3008180d3008301d100d8
:103420000281d3008180d3000538b000c42add00ba
:10343000f300b2008381720007f0a70003f0a00040
:1034400000000600f3ff2700f2ff2f006110b90013
:10345000fbff370003ff2700f7ff37001400fa00d7
:10346000889fbe008a9fbe008c9fbe000004be00e5
:103470000205be00680047000a90be000890be002a
:10348000700207000070a7000bf0a1000bf8a3006a
:1034900020003a009e0990000e099000fe00900066
:1034a0006e0090009e0290003443200084825200ff
:1034b000c6ff32000a003c00b4fc2f000428e100e3
:1034c000140034008301d1000281d3008180d30035
:1034d0000080d3008502e800faff3a00bbff370006
:1034e000b40020000428e10007003c000000400078
:1034f0008180480002014900838149008502e9007a
:10350000faff3a00b1ff3700030028000200200054
:10351000010037006011b8006000b800abff370051
:10352000889fbe0000827000040271000482710056
:103530002400320036432000c50020008383cf00e2
:103540000a0039000541b1008283cf00070039002d
:103550000541b1008183cf00040039000541b1006d
:103560008083cf00010039000541b10085c35300bd
:103570006022b800120032000a003b008482720010
:10358000610260008301d1000281d3008180d300f9
:103590000080d3000603e8008743e800f7ff3a0005
:1035a0000700370000004000818048000201490008
:1035b000838149000603e9008743e900f9ff3a00e7
:1035c00042ff07004f04be00000006001400fa008e
:1035d000889fbe008a9fbe008c9fbe0004067800b4
:1035e0000004be000205be00680047000a90be004d
:1035f0000890be00130207006200e1000800be0050
:103600000a01be00040020000b003a001e029000d8
:10361000e43fb1006e009000fe0090000e099000a3
:103620009e099000f300b20005fe23008581710021
:103630000bf0a70003f0a000040e780063ff370032
:103640002800fa00889fbe008a9fbe008c9fbe00a3
:1036500003866b0049ff07000028a30064003a00be
:103660000128a30067003a000008a30062003a00a6
:103670000108a30065003a001e009000be089000fb
:1036800081064000ed3fb100f4805700ee0190004c
:10369000111ab8008e099000311bb8009e099000e5
:1036a000311cb800511db800f485570046000700d2
:1036b000fe0190003a0007008b85e8003e000700fd
:1036c0008e09900040000700ee01900034000700d2
:1036d0008b85e800380007008e0990004000070045
:1036e0009e0990001b18b800890440000a85480014
:1036f000fe019000340007008b85e80038000700c9
:10370000ee019000300007008e0990001b18b800f1
:10371000890440000a8548000a98a30008003a007e
:103720000402420085824a0006034b0087834b0057
:1037300008044c0089844c000a054d008d06e90000
:1037400084827200850273004c3add0085027200ab
:103750000100320015002000443ade001400b200df
:103760004538de00cb45dd000b007000c540de00b3
:10377000cb4ddd008b8070004549de00cb55dd0070
:103780000b017100c551de000d037800cffe07006c
:1037900003f0a1000cf0a70003f0a0000bff37001e
:1037a0001b18b8008502400006834800e0834b00e8
:1037b00060044c00070037001b18b80006034000e7
:1037c00087834800faff37001b18b80087034000c2
:1037d00008844800e0844c0060054d0000000600ad
:1037e0001b18b8000804400089844800faff37001d
:1037f0000108a300f2fe3a005800be005801be00c6
:10380000e3ff37000008a300edfe3a00090478004a
:10381000f9ff370007f0a200c6fd3700020ab90021
:10382000001bb9000200b800810042008100430083
:10383000000006000000fa00889fbe008a9fbe00bc
:103840003004be002005be000404440085844c0002
:1038500006054d0087854d000898be000a90be0001
:103860000440e10005c8e10006d0e10007d8e1000e
:1038700002003100680040001008e8004f05be005b
:103880004f04be000080fa00000006001000fa009d
:10389000889fbe008a9fbe000605be000404be00cd
:1038a0003002be002003be00049fbe000697be008b
:1038b000110020000802520089825a000a035b00ae
:1038c0008b835b00440798005507980066079800b3
:1038d000770798000498be000698be003e02be001e
:1038e0002e03be000820e10009a8e1000ab0e100b3
:1038f0000bb8e100010039008000eb004f05be006d
:10390000108810004f04be000080fa00000006007e
:103910001400fa00889fbe005b0007008a9fbe006b
:103920008c9fbe000006eb004c0798003c079800f7
:103930002c0798001c0798000c0f78000605be00a5
:103940000404be000d0420004e039000be0290004f
:10395000860343002e029000e00f530003003d0059
:103960002a000700b3ff0700020037002700070006
:10397000c6ff0700ce029000150f9800e08f52009e
:103980000900350045000700140020000500200054
:103990006033b80000007200818072000201730081
:1039a00083817300380007000c06e8008d0f560075
:1039b000e5ff3a001e0a9000e00f520004003d00af
:1039c0000802be000a03be000e00780099ff07003f
:1039d0004eba9700e00f520006003a003e04be00c7
:1039e0002e05be0058079800690798007a079800ce
:1039f0000b0f98004f06be00280007004f05be00c1
:103a00004f04be000080fa00000006004f2bde00cd
:103a10002200070086837300858242004f23de0068
:103a2000470798008682720004024200350798001a
:103a30009e0290004f2bde0085824200060272003b
:103a4000240798001e0278004f23de000402420083
:103a500086827200150798004f18de00000f720072
:103a60000e0007000802be000a03be00000040006e
:103a7000818048000201490083814900020007005b
:103a80000e007800000006005007980061079800bb
:103a900072079800030f9800000006005e00900077
:103aa000ee0090007e0190008e099000000006005c
:103ab0000000fa00881f780018002000881f780096
:103ac00093ff07008f87e9004f0478000080fa0019
:103ad000000006000000fa00801feb008cff0700ca
:103ae0008f87e9000080fa00000006000000fa005d
:103af000889fbe008a9fbe00e00f5000e08f5800f4
:103b0000e00f5900e08f59000c003d006044b80000
:103b10006055b8000000540081805c0002015d0027
:103b200083815d00180020001600070008003d009a
:103b3000190007000004eb00050037000004eb004b
:103b40001000070002003d001300070018002000cd
:103b5000d7ff0700e00f5400060032006022b800d3
:103b60006033b8000000520081805a0002015b00ff
:103b700083815b004f05be004f04be000080fa0049
:103b800000000600e00f5200e08f5a00e00f5b00db
:103b9000e08f5b00000006006044b8006055b8008c
:103ba0000402540085825c0006035d0087835d008b
:103bb000000006000000fa00889fbe008a9fbe0039
:103bc0008c1f7800e00f5000e08f5800e00f590084
:103bd000e08f59000d003d006044b8006055b8000a
:103be0001c0020000000540081805c0002015d0088
:103bf00083815d000820e10009a8e1000ab0e1002e
:103c00000bb8e1000d003d00080037000006eb0096
:103c1000e00f5200e08f5a00e00f5b00e08f5b0086
:103c200006003d006044b8006055b800040254002e
:103c300085825c0006035d0087835d00a5ff0700a9
:103c4000e00f5600060032006022b8006033b80072
:103c50000000520081805a0002015b0083815b00fa
:103c60004f0678004f05be004f04be000080fa00ea
:103c7000000006000000fa00889fbe008a9fbe0078
:103c80008c1f78000006eb00e00f5000e08f58001a
:103c9000e00f5900e08f590007003d006044b80074
:103ca0006055b8001c0020000000540081805c00ba
:103cb00002015d0083815d00e00f5200e08f5a0039
:103cc000e00f5b00e08f5b0007003d006044b80040
:103cd0006055b8000c00a2000402540085825c000c
:103ce00006035d0087835d007d000700e00f56003e
:103cf000060032006022b8006033b80000005200b5
:103d000081805a0002015b0083815b004f067800ce
:103d10004f05be004f04be000080fa000000060000
:103d2000889fbe008a9fbe008c9fbe000404be0018
:103d30000605be00809fbe00829fbe002f000700c8
:103d4000040678000800be000a01be002b00070030
:103d5000840678004f03be004f02be008d4f7600f0
:103d60007fb0970013003300f0ff2f008b8f6b00a4
:103d700006003b000d0666000c00a7000a00370095
:103d800007f0a600100020000a003700880f52003c
:103d9000898f5a008a0f5b008b8f5b00030039000c
:103da0001000200001003e000000200007f0a700e6
:103db0000000ea004f06be004f05be004f04be00e3
:103dc00000000600e48240001078a30007003200e3
:103dd000640240001178a3003400be001401be004c
:103de000040032000330a700000006003500be00ca
:103df0001501be000330a0000000060005ff2700eb
:103e000005826100070032000428e1000100320051
:103e1000240005000600070001003a0044000500e8
:103e20000408050002000700f9ff3a00140005002d
:103e30006f8261008102700085027100850272004c
:103e400000000600800078005002be005003be0053
:103e50004439de00f700b200f37f20000301610067
:103e6000090032000218e10016003a0085017200d4
:103e700083017300838173000008200015003a005d
:103e80004000200013003700850172008301730099
:103e90008381730005003a0004a8be0006a8be0096
:103ea000100020000b0037000201e900040242006c
:103eb00085824a0006034b0087834b000748a30016
:103ec000f9ff32000740a00004a8be0006a8be000b
:103ed000200020008000980092009800000006005a
:103ee000889fbe008a9fbe008c9fbe000404b8005d
:103ef0000506b8008904460060854e000606b80035
:103f00000a054600e0854e000706b8008b0546000e
:103f1000040eb800890446000a854e00e0854d0075
:103f2000050eb8000a0546008b854e00060eb80047
:103f30008b0546000416b8000a0546008b854e0026
:103f40000516b8008b054600041eb8008b05460018
:103f50000800be000a01be004f06be004f05be00ad
:083f60004f04be000000060042
:020000040000fa
:103f6800496e0000697400002e200000436f0000b5
:103f78006d7000006c650000746500000d0a00009b
:103f8800004100003a200000253500006c64000064
:103f980020250000356c0000642000002535000055
:103fa8006c64000020250000356c000064200000cf
:103fb800253500006c64000020250000356c0000e9
:103fc80064200000204200003a200000253500004f
:103fd8006c64000020250000356c0000642000009f
:103fe800253500006c64000020250000356c0000b9
:103ff80064200000253500006c64000020250000c6
:10400800356c000064200000204300003a200000c6
:10401800253500006c64000020250000356c000088
:1040280064200000253500006c6400002025000095
:10403800356c000064200000253500006c64000029
:1040480020250000356c0000642000000d0a0000e7
:10405800000000002c00000024250000662c000051
:10406800256600002c250000662c0000256600004f
:10407800002a0000255800000d0a0000000000007a
:020000040000fa
:104088003400fa00889fbe008a9fbe008c9fbe0045
:104098000002eb00a48c88000002eb00b48c8800be
:1040a8000002eb00c48c88000002eb00d48c88006e
:1040b8000002eb00e48c880002022000c10021000d
:1040c800000021004f070700440a210002082000d1
:1040d80084007800800921004a070700037622003f
:1040e800820921000100210000172100a503070013
:1040f800b50e070065eea900247380004f22de008c
:10410800044278000482fb0061026200267080008d
:10411800e5ff2f0085026300050272002470880005
:104128002470800004427800614262000482fb002f
:1041380061026200a6718000e5ff2f00850263001e
:1041480005027200a4718800ba0e070065eea80087
:10415800247380004f22de00044278000482fb00b2
:104168006102620026708000e5ff2f00850263006f
:1041780005027200247088002470800004427800d0
:10418800614262000482fb0061026200a671800045
:10419800e5ff2f008502630005027200a471880004
:1041a80065aea900247380004d22de0061426200e2
:1041b8000482fb004f22dd00a6718000f5ff270076
:1041c8008502630005027200a4718800a471800052
:1041d8004f22de00044278000482fb006102620084
:1041e8004b22dd00a6718000f57f2f008502630059
:1041f80005027200a47188008e0e070065aea80043
:10420800247380004d22de00614262000482fb00bc
:104218004f22dd00a6718000f5ff270085026300ac
:1042280005027200a4718800a47180004f22de008c
:10423800044278000482fb00610262004b22dd0028
:10424800a6718000f57f2f008502630005027200c9
:10425800a4718800658ea900247380004c22de00ba
:10426800614262000482fb00610262004e22dd00ae
:10427800a6718000f5ff2b0085026300050272001d
:10428800a4718800a47180004e22de0061426200a1
:104298000482fb00610262004a22dd00a6718000f0
:1042a800f5bf2f008502630005027200a471880023
:1042b800600e0700658ea800247380004c22de0083
:1042c800614262000482fb00610262004e22dd004e
:1042d800a6718000f5ff2b008502630005027200bd
:1042e800a4718800a47180004e22de006142620041
:1042f8000482fb00610262004a22dd00a671800090
:10430800f5bf2f008502630005027200a4718800c2
:1043180065cea900247380004e22de00614262004f
:104328000482fb00610262004c22dd00a67280005c
:10433800f5ff2e008502630005027200a472880052
:10434800a47280004c22de00614262000482fb00fd
:10435800610262004922dd00a6718000f5df2f00ae
:104368008502630005027200a4718800310e0700ff
:1043780065cea800247380004e22de0061426200f0
:104388000482fb00610262004c22dd00a6728000fc
:10439800f5ff2e008502630005027200a4728800f2
:1043a800a47280004c22de00614262000482fb009d
:1043b800610262004922dd00a6718000f5df2f004e
:1043c8008502630005027200a4718800640ea900ca
:1043d8002473800004427800614262000482fb007a
:1043e800610262004d22dd00a6728000f5ff2d00fb
:1043f8008502630005027200a4728800a47280001e
:104408004d22de00614262000482fb00610262000c
:104418004822dd00a6718000f5ef2f0085026300b9
:1044280005027200a4718800020e0700640ea8003d
:104438002473800004427800614262000482fb0019
:10444800610262004d22dd00a6728000f5ff2d009a
:104458008502630005027200a4728800a4728000bd
:104468004d22de00614262000482fb0061026200ac
:104478004822dd00a6718000f5ef2f008502630059
:1044880005027200a4718800642ea90024738000bc
:104498000402d100614262000482fb0061026200f2
:1044a8000402420026708000d5ff2f0085026300b9
:1044b8000502720024708800247080000402d10074
:1044c800614262000482fb004f22dd0026708000fa
:1044d800f5ff27008502630005027200247088003a
:1044e800d40d0700642ea800247380000402d100b4
:1044f800614262000482fb00610262000402420021
:1045080026708000d5ff2f00850263000502720027
:1045180024708800247080000402d1006142620087
:104528000482fb004f22dd0026708000f5ff270083
:1045380085026300050272002470880044fb29008c
:1045480004007800b1f007000042eb000002fd0013
:104558006ef1b7000002fd00780207004019210043
:104568000b0807000100370000000000648b800082
:1045780070026200e00f52000e02320034eea80012
:10458800054ea80005cea800348c8000458c80001c
:1045980061024200e0824a00348c8800458c880021
:1045a800c412200034628800c412200034618800dc
:1045b800c412200034638800c412200034648800c8
:1045c800c412200034658800c412200034668800b4
:1045d8000002eb00746588000002eb007466880036
:1045e8000002eb00746388000002eb00746488002a
:1045f8000002eb00746588000002eb007466880016
:10460800348c8000458c8000421f2000030020006d
:104618000400be0076f107000002be00e00f520061
:10462800e08f5a0003003a00548c80000402e8002e
:10463800548c8800348c8000458c8000e201200076
:10464800030020000400be0069f107000002be005c
:10465800e00f5200e08f5a00cc013a0065eea90045
:10466800247380004f22de00044278000482fb009d
:104678006102620026708000e5ff2f00850263005a
:1046880005027200247088002470800004427800bb
:10469800614262000482fb0061026200a671800030
:1046a800e5ff2f008502630005027200a4718800ef
:1046b80040122100680d070065eea80024738000f1
:1046c8004f22de00044278000482fb00610262008f
:1046d80026708000e5ff2f00850263000502720046
:1046e80024708800247080000442780061426200cf
:1046f8000482fb0061026200a6718000e5ff2f00c2
:104708008502630005027200a471880065aea900e5
:10471800247380004d22de00614262000482fb00a7
:104728004f22dd00a6718000f5ff27008502630097
:1047380005027200a4718800a47180004f22de0077
:10474800044278000482fb00610262004b22dd0013
:10475800a6718000f57f2f008502630005027200b4
:10476800a4718800001321003b0d070065aea80066
:10477800247380004d22de00614262000482fb0047
:104788004f22dd00a6718000f5ff27008502630037
:1047980005027200a4718800a47180004f22de0017
:1047a800044278000482fb00610262004b22dd00b3
:1047b800a6718000f57f2f00850263000502720054
:1047c800a4718800658ea900247380004c22de0045
:1047d800614262000482fb00610262004e22dd0039
:1047e800a6718000f5ff2b008502630005027200a8
:1047f800a4718800a47180004e22de00614262002c
:104808000482fb00610262004a22dd00a67180007a
:10481800f5bf2f008502630005027200a4718800ad
:10482800c01321000c0d0700658ea80024738000ba
:104838004c22de00614262000482fb0061026200d9
:104848004e22dd00a6718000f5ff2b008502630073
:1048580005027200a4718800a47180004e22de0057
:10486800614262000482fb00610262004a22dd00ac
:10487800a6718000f5bf2f00850263000502720053
:10488800a471880065cea900247380004e22de0042
:10489800614262000482fb00610262004c22dd007a
:1048a800a6728000f5ff2e008502630005027200e3
:1048b800a4728800a47280004c22de00614262006b
:1048c8000482fb00610262004922dd00a6718000bb
:1048d800f5df2f008502630005027200a4718800cd
:1048e80080142100dc0c070065cea800247380002a
:1048f8004e22de00614262000482fb006102620017
:104908004c22dd00a6728000f5ff2e0085026300b0
:1049180005027200a4728800a47280004c22de0096
:10492800614262000482fb00610262004922dd00ec
:10493800a6718000f5df2f00850263000502720072
:10494800a4718800640ea9002473800004427800d2
:10495800614262000482fb00610262004d22dd00b8
:10496800a6728000f5ff2d00850263000502720023
:10497800a4728800a47280004d22de0061426200a9
:104988000482fb00610262004822dd00a6718000fb
:10499800f5ef2f008502630005027200a4718800fc
:1049a80040152100ac0c0700640ea8002473800099
:1049b80004427800614262000482fb0061026200e6
:1049c8004d22dd00a6728000f5ff2d0085026300f0
:1049d80005027200a4728800a47280004d22de00d5
:1049e800614262000482fb00610262004822dd002d
:1049f800a6718000f5ef2f008502630005027200a2
:104a0800a4718800642ea900247380000402d100d8
:104a1800614262000482fb006102620004024200fb
:104a280026708000d5ff2f00850263000502720002
:104a380024708800247080000402d1006142620062
:104a48000482fb004f22dd0026708000f5ff27005e
:104a58008502630005027200247088000016210098
:104a68007d0c0700642ea800247380000402d10086
:104a7800614262000482fb0061026200040242009b
:104a880026708000d5ff2f008502630005027200a2
:104a980024708800247080000402d1006142620002
:104aa8000482fb004f22dd0026708000f5ff2700fe
:104ab800850263000502720024708800448b800020
:104ac800558b8000041f9800151f9800e08a80000d
:104ad800f18a8000888a8000998a80002c8a800068
:104ae8003d8a8000c6898000d78980001607980013
:104af800270798006489800075898000340798002a
:104b080045079800268b8000378b80005607980051
:104b180067079800c48a8000d58a800074079800c7
:104b2800050f9800668a8000778a8000160f980023
:104b3800270f9800048a8000158a8000340f980097
:104b4800450f9800a6898000b7898000560f980005
:104b5800670f98004489800055898000740f980079
:104b680005179800068b8000178b80001617980091
:104b780027179800a48a8000b58a80003417980007
:104b880045179800468a8000578a80005617980073
:104b980067179800ea898000fb8980008289800075
:104ba800938980002689800037898000e4192100d4
:104bb800741798000e1a90009e1a9000849fbe00e9
:104bc800809fbe00889fbe008c9fbe001e02900082
:104bd800ae029000849fbe003e029000ce0290007c
:104be800849fbe005e029000ee029000849fbe008b
:104bf8007e0290008e0a9000849fbe001e0a9000dc
:104c0800ae0a9000849fbe003e0a9000ce0a900033
:104c1800849fbe005e0a9000ee0a9000849fbe004a
:104c28007e0a90008e129000849fbe001e12900093
:104c3800ae129000849fbe003e129000ce129000eb
:104c4800849fbe005e129000ee129000849fbe000a
:104c58008a9fbe00829fbe00869fbe0054fc29002a
:104c6800841f78007e10900003f10700af04b100a4
:104c7800000278000442780004007800caf2b70005
:104c8800a42c2100144278000482fb00e1192100c1
:104c98000400780003080700949d8000044278000f
:104ca8006142620061426200614262000482fb006c
:104cb8004f22dd00a6708000f5ff27008502630003
:104cc80005027200a4708800949d80006202620050
:104cd8000482d10004427800614262000482fb0031
:104ce800610262004e22dd00a6708000f5ff2b00f5
:104cf8008502630005027200a4708800949d8000fc
:104d08006402620042a2de0004427800614262004e
:104d18000482fb00610262004d22dd00a670800063
:104d2800f5ff2d008502630005027200a47088005b
:104d3800949d80006802620043a2de00044278006d
:104d4800614262000482fb00610262004c22dd00c5
:104d5800a6708000f5ff2e00850263000502720030
:104d6800a4708800949d800004024200949d8800ed
:104d7800949d8000f00f520002003200949d800044
:104d88000100370014002000949d8800348c8000b6
:104d9800458c800052002000030020000400be0063
:104da80093ef0700658b8000f4fe2f0004826200f9
:104db800648b8800648b8000610262000442780082
:104dc800e04f5200110032008e00780000002100f0
:104dd800400407001e42780004407800ff050700e1
:104de80000427800e04f520004003200658b8000da
:104df8000404200005027200648b8800658b800023
:104e0800e4ff2f0004826200648b8800648b8000ba
:104e180062026200e00f520004003200658b8000dd
:104e2800d4ff2f0004826200648b8800648b8000aa
:104e380064026200e00f520004003200658b8000bb
:104e4800b4ff2f0004826200648b8800648b8000aa
:104e580068026200e00f520004003200658b800097
:104e680074ff2f0004826200648b8800658b8000c9
:104e78000402200004826200e00f520004003200a5
:104e8800658b8000f4fd2f0004826200648b88002b
:104e9800658b80000404200004826200e00f520049
:104ea800b1fd3200658b8000f4fb2f0004826200a4
:104eb800648b8800adfd37000000fa003480800064
:104ec800e00f520003003200648b80000400a00051
:104ed800648b880094828000e00f52000300320047
:104ee800648b80000410a000648b8800f484800028
:104ef800e00f520003003200648b80000420a00001
:104f0800648b8800248c8000e00f52000600320079
:104f18000002eb00248c8800658b800004022000ce
:104f280005027200648b8800648b80000440a00036
:104f3800648b88000080fa00000006000000fa0078
:104f48000080fa00000006003600f800809fbe00ce
:104f5800829fbe00849fbe00869fbe000000fa00ac
:104f6800f6ff07000268a9000080fa004f03be00a0
:104f78004f02be004f01be004f00be003600f900d0
:104f8800004006000800fa00000f7800110798009a
:104f980022079800330798006c0007009500070067
:104fa800110007005500070023eba80000000000cf
:104fb800155980000400280004826200e00f5200a6
:104fc800fbff3a001e009000550707001e007800fe
:104fd800da0707003e009000740307000603070085
:104fe8000080fa00000006000000fa008457200044
:104ff800246088000002eb00546688005466800034
:1050080054658800546580005464880054648000a6
:10501800546388005463800054628800546280009e
:10502800546188000002eb006466880064668000b2
:105038006465880064658000646488006464800036
:10504800646388006463800064628800646280002e
:105058006461880004c02c0014668800146680000f
:105068001465880014658000146488001464800046
:10507800146388001463800014628800146280003e
:10508800146188000002eb00046688000466800052
:105098000465880004658000046488000464800056
:1050a800046388000463800004628800046280004e
:1050b800046188003400200024668800246680008b
:1050c80024658800246580002464880024648000a6
:1050d800246388002463800024628800246280009e
:1050e800246188000002eb00146088000400280096
:1050f800046088000080fa00000006000000fa0042
:105108003002a900841180000410a1000420a1002d
:105118008411880030a2a9003062a8002401200070
:10512800c411880033a2a90033e2a90094118000b9
:105138000460a1000470a1009411880031e2a80065
:105148003342a8000080fa00000006000000fa00c0
:10515800a4042000343a8800253a800004fe2f0079
:1051680004826200243a8800243a80000460a10086
:105178000470a100243a880016002000840720004b
:10518800a509200037742000844b7800854b7800ef
:10519800864b7800143a8000040378000600a000cb
:1051a800640420007505200027742000844b7800d3
:1051b800854b7800864b780000000000153a800087
:1051c800040027008482620004002100848f5200ba
:1051d800faff3a0000000000153a8000040220009f
:1051e80004826200e00f5200fbff32000080fa00e8
:1051f800000006000000fa000002eb00842488008a
:105208000002eb00742488000002eb00142c8800d4
:105218000002eb00f4268800de44a800de24a80083
:105228000002eb00043088000002eb0064308800c4
:105238000002eb00341088000002eb00b410880074
:105248000002eb00747088000002eb00f470880024
:105258000002eb00747188000002eb00f471880012
:105268000002eb00747288000002eb00747388007f
:1052780011eea90011cea90011aea900118ea90046
:1052880001eea900047080004f22de00044278007d
:105298000482fb00610262004822dd008671800002
:1052a800f5ef2f0085026300050272008471880003
:1052b800847180004822de00614262000482fb00a3
:1052c800610262004922dd0086718000f5df2f004f
:1052d8008502630005027200847188008471800071
:1052e8004922de00614262000482fb006102620022
:1052f8004a22dd0086718000f5bf2f008502630019
:105308000502720084718800847180004a22de00e0
:10531800614262000482fb00610262004b22dd00f0
:1053280086718000f57f2f008502630005027200f8
:1053380084718800847180004b22de006142620023
:105348000482fb006102620086718000e5ff2f0085
:1053580085026300050272008471880007eea800c8
:10536800347080004f22de00044278000482fb0083
:10537800610262004822dd00b6718000f5ef2f005f
:105388008502630005027200b4718800b471800060
:105398004822de00614262000482fb006102620072
:1053a8004922dd00b6718000f5df2f008502630019
:1053b80005027200b4718800b47180004922de00d1
:1053c800614262000482fb00610262004a22dd0041
:1053d800b6718000f5bf2f008502630005027200d8
:1053e800b4718800b47180004a22de006142620014
:1053f8000482fb00610262004b22dd00b67180006e
:10540800f57f2f008502630005027200b4718800e1
:10541800b47180004b22de00614262000482fb000e
:1054280061026200b6718000e5ff2f00850263000b
:1054380005027200b471880005eea800247080008f
:105448004f22de00044278000482fb006102620001
:105458004822dd00a6718000f5ef2f008502630069
:1054680005027200a4718800a47180004822de0041
:10547800614262000482fb00610262004922dd0091
:10548800a6718000f5df2f00850263000502720017
:10549800a4718800a47180004922de006142620084
:1054a8000482fb00610262004a22dd00a6718000ce
:1054b800f5bf2f008502630005027200a471880001
:1054c800a47180004a22de00614262000482fb006f
:1054d800610262004b22dd00a6718000f57f2f007b
:1054e8008502630005027200a4718800a47180001f
:1054f8004b22de00614262000482fb00610262000e
:10550800a6718000e5ff2f00850263000502720086
:10551800a4718800002ea900047080000402d10044
:10552800614262000482fb00610262004d22dd00dc
:1055380086728000f5ff2d00850263000502720067
:1055480084728800847280004d22de00614262000d
:105558000482fb00610262004c22dd00867280003a
:10556800f5ff2e0085026300050272008472880030
:10557800847280004c22de00614262000482fb00db
:10558800610262004e22dd0086718000f5ff2b006b
:1055980085026300050272008471880084718000ae
:1055a8004e22de00614262000482fb004f22dd00d1
:1055b80086718000f5ff27008502630005027200ee
:1055c80084718800847180004f22de0004427800d4
:1055d8000482fb006102620006708000e5ff2f0074
:1055e800850263000502720004708800062ea80078
:1055f800347080000402d100614262000482fb0022
:10560800610262004d22dd00b6728000f5ff2d00b8
:105618008502630005027200b4728800b4728000cb
:105628004d22de00614262000482fb0061026200da
:105638004c22dd00b6728000f5ff2e008502630063
:1056480005027200b4728800b47280004c22de0039
:10565800614262000482fb00610262004e22dd00aa
:10566800b6718000f5ff2b00850263000502720009
:10567800b4718800b47180004e22de00614262007d
:105688000482fb004f22dd00b6718000f5ff270081
:105698008502630005027200b4718800b47180004d
:1056a8004f22de00044278000482fb00610262009f
:1056b80036708000e5ff2f00850263000502720046
:1056c80034708800042ea800247080000402d100e1
:1056d800614262000482fb00610262004d22dd002b
:1056e800a6728000f5ff2d00850263000502720096
:1056f800a4728800a47280004d22de00614262001c
:105708000482fb00610262004c22dd00a672800068
:10571800f5ff2e008502630005027200a47288005e
:10572800a47280004c22de00614262000482fb0009
:10573800610262004e22dd00a6718000f5ff2b0099
:105748008502630005027200a4718800a4718000bc
:105758004e22de00614262000482fb004f22dd001f
:10576800a6718000f5ff270085026300050272001c
:10577800a4718800a47180004f22de0004427800e2
:105788000482fb006102620026708000e5ff2f00a2
:10579800850263000502720024708800602ea9004b
:1057a800047380000402d100614262000482fb009d
:1057b8006102620006738000e5ff2f008502630026
:1057c80005027200047388000473800004427800a4
:1057d800614262000482fb00610262004e22dd0029
:1057e80006738000f5ff2b00850263000502720036
:1057f80004738800047380004e22de006142620058
:105808000482fb00610262004c22dd000673800006
:10581800f5ff2e00850263000502720004738800fc
:10582800047380004c22de00614262000482fb00a7
:10583800610262004d22dd0006738000f5ff2d0035
:1058480085026300050272000473880004738000f7
:105858004d22de00614262000482fb004f22dd001f
:1058680006738000f5ff27008502630005027200b9
:1058780004738800662ea800347380000402d100e7
:10588800614262000482fb0061026200367380009c
:10589800e5ff2f008502630005027200347388005b
:1058a8003473800004427800614262000482fb0085
:1058b800610262004e22dd0036738000f5ff2b0086
:1058c8008502630005027200347388003473800017
:1058d8004e22de00614262000482fb006102620027
:1058e8004c22dd0036738000f5ff2e008502630030
:1058f8000502720034738800347380004c22de0085
:10590800614262000482fb00610262004d22dd00f8
:1059180036738000f5ff2d008502630005027200d2
:1059280034738800347380004d22de0061426200c7
:105938000482fb004f22dd0036738000f5ff27004c
:10594800850263000502720034738800642ea80083
:10595800247380000402d100614262000482fb00cb
:105968006102620026738000e5ff2f008502630054
:1059780005027200247388002473800004427800b2
:10598800614262000482fb00610262004e22dd0077
:1059980026738000f5ff2b00850263000502720064
:1059a80024738800247380004e22de006142620066
:1059b8000482fb00610262004c22dd002673800035
:1059c800f5ff2e008502630005027200247388002b
:1059d800247380004c22de00614262000482fb00d6
:1059e800610262004d22dd0026738000f5ff2d0064
:1059f8008502630005027200247388002473800006
:105a08004d22de00614262000482fb004f22dd006d
:105a180026738000f5ff27008502630005027200e7
:105a28002473880000aea800008ea800006ea800ad
:105a3800004ea800116ea800114ea800112ea80053
:105a4800110ea800502ea800500ea80000eea800c5
:105a580000cea80030eea900847180004722de0045
:105a6800614262000482fb00610262004a22dd009a
:105a780006708000f5bf2f008502630005027200e2
:105a880004708800047080004a22de0061426200cf
:105a98000482fb00610262004e22dd000670800075
:105aa800f5ff2b0085026300050272000470880070
:105ab80034eea800a47180004722de006142620033
:105ac8000482fb00610262004a22dd002670800029
:105ad800f5bf2f008502630005027200247088005c
:105ae800247080004a22de00614262000482fb00ca
:105af800610262004e22dd0026708000f5ff2b0057
:105b0800850263000502720024708800568ea90081
:105b180056aea9002268a8000268a90030cea900e4
:105b2800302ea90031aea800506ea900508ea900f1
:105b380050aea80015348000f40f2c008482620057
:105b480004302000050272001434880035368000c5
:105b580004f82f00848262005404200005027200b9
:105b6800343688003534800004fc2f00048262003b
:105b78005400b3003434880005348000f40f2c003e
:105b880084826200046020000502720004348800e8
:105b98004536800004f82f0084826200d404200077
:105ba800050272004436880085348000f40f2c000a
:105bb8008482620004f021000502720084348800a7
:105bc8009534800004fc2f008482620004022000c7
:105bd8000502720094348800d536800004f82f003e
:105be800848262005406200005027200d4368800c0
:105bf8000080fa00000006000000fa002fe1a9006a
:105c08002e21a9002ec1a900740980000440a0001b
:105c18000450a000740988000002eb0034098800d1
:105c28002411200054098800c44280000400a00008
:105c38000410a1000420a100c44288000608a9009d
:105c48002608a8002fe1a8000002eb00c40888007d
